:100000000C9469050C94D2090C94FF090C94910589
:100010000C9491050C9491050C9491050C9476091F
:100020000C9491050C9491050C9491050C949105F8
:100030000C9491050C9491050C9491050C949105E8
:100040000C94840A0C9491050C9494050C94E2058C
:100050000C9491050C9491050C9491050C949105C8
:100060000C947A1B0C9491050200000000240027D8
:10007000002A0000000000250028002B00000000DE
:1000800000230026002900040404040404040402DC
:100090000202020202030303030303010204081025
:1000A00020408001020408102001020408102000F2
:1000B0000000070002010000030406000000000029
:1000C00000000000000000003E5B4F5B3E3E6B4FB7
:1000D0006B3E1C3E7C3E1C183C7E3C181C577D57DA
:1000E0001C1C5E7F5E1C00183C1800FFE7C3E7FF86
:1000F0000018241800FFE7DBE7FF30483A060E2619
:1001000029792926407F050507407F05253F5A3C70
:10011000E73C5A7F3E1C1C08081C1C3E7F14227FB3
:1001200022145F5F005F5F06097F017F006689958B
:100130006A606060606094A2FFA29408047E040874
:1001400010207E201008082A1C08081C2A08081EF7
:10015000101010100C1E0C1E0C30383E3830060EDD
:100160003E0E06000000000000005F0000000700D7
:100170000700147F147F14242A7F2A122313086493
:100180006236495620500008070300001C22410037
:100190000041221C002A1C7F1C2A08083E08080077
:1001A0008070300008080808080000606000201017
:1001B0000804023E5149453E00427F4000724949D1
:1001C00049462141494D331814127F1027454545B2
:1001D000393C4A49493141211109073649494936D3
:1001E000464949291E000014000000403400000068
:1001F000081422411414141414004122140802019A
:100200005909063E415D594E7C1211127C7F4949C5
:1002100049363E414141227F4141413E7F49494962
:10022000417F090909013E414151737F0808087F58
:1002300000417F41002040413F017F081422417F5F
:10024000404040407F021C027F7F0408107F3E41F7
:1002500041413E7F090909063E4151215E7F09194E
:100260002946264949493203017F01033F40404066
:100270003F1F2040201F3F4038403F631408146355
:1002800003047804036159494D43007F4141410211
:1002900004081020004141417F0402010204404053
:1002A000404040000307080020545478407F284411
:1002B00044383844444428384444287F38545454FB
:1002C0001800087E090218A4A49C787F080404780A
:1002D00000447D40002040403D007F102844000045
:1002E000417F40007C047804787C0804047838441A
:1002F000444438FC1824241818242418FC7C0804CE
:100300000408485454542404043F44243C404020EE
:100310007C1C2040201C3C4030403C442810284499
:100320004C9090907C4464544C440008364100004A
:1003300000770000004136080002010204023C265A
:1003400023263C1EA1A161123A4040207A38545421
:1003500055592155557941215454784121555478A6
:100360004020545579400C1E52721239555555593A
:10037000395454545939555454580000457C41005F
:1003800002457D420001457C40F0292429F0F028F7
:100390002528F07C545545002054547C547C0A098F
:1003A0007F4932494949323248484832324A4848FE
:1003B000303A4141217A3A42402078009DA0A07D08
:1003C00039444444393D4040403D3C24FF242448C6
:1003D0007E4943662B2FFC2F2BFF0929F620C0886E
:1003E0007E090320545479410000447D413048483F
:1003F0004A32384040227A007A0A0A727D0D193159
:100400007D2629292F28262929292630484D4020B4
:10041000380808080808080808382F10C8ACBA2F90
:10042000102834FA00007B000008142A1422221439
:100430002A1408AA005500AAAA55AA55AA00000025
:10044000FF00101010FF00141414FF001010FF0024
:10045000FF1010F010F0141414FC001414F700FF37
:100460000000FF00FF1414F404FC141417101F10F4
:10047000101F101F1414141F00101010F0000000A3
:10048000001F101010101F10101010F010000000AE
:10049000FF101010101010101010FF10000000FFBF
:1004A000140000FF00FF00001F10170000FC04F400
:1004B00014141710171414F404F40000FF00F714B8
:1004C000141414141414F700F7141414171410103F
:1004D0001F101F141414F4141010F010F000001F5B
:1004E000101F0000001F14000000FC140000F0109A
:1004F000F01010FF10FF141414FF141010101F0040
:10050000000000F010FFFFFFFFFFF0F0F0F0F0FF41
:10051000FFFF0000000000FFFF0F0F0F0F0F384418
:100520004438447C2A2A3E147E02020606027E02D9
:100530007E0263554941633844443C04407E201E9A
:100540002006027E020299A5E7A5991C2A492A1CC9
:100550004C7201724C304A4D4D303048784830BCB6
:10056000625A463D3E494949007E0101017E2A2AE0
:100570002A2A2A44445F444440514A444040444A61
:1005800051400000FF0103E080FF000008086B6B92
:10059000083612362436060F090F06000018180018
:1005A00000001010003040FF0101001F01011E007B
:1005B000191D1712003C3C3C3C00000000000000EC
:1005C0000100FF00320001000001020000070300EB
:1005D00030100400000008000202090000000A00B8
:1005E00000000C0000000D0000000F0000001000D3
:1005F0000000110007001200000013000000FF00BF
:10060000C8001000901611002702FF0032001200EF
:100610001A00FF0032001300001829002A00FF0012
:1006200032003000000031000000320000003500D0
:1006300006023600080837000700380001023900BA
:1006400000003C0000003D000000200000002100F0
:100650000000500000005100EF0052000000530065
:100660003F01600000A7610003006A0000009000E5
:100670001000920000009300030095000011970005
:10068000000098000000070033012E89298F2B02FB
:10069000E200E401E510E601E710E870F200EA008C
:1006A000EB20EC3CEDC8E938F1011B1A1A02246179
:1006B000255C183619011F88FF051F80FF051F9054
:1006C000FF051FD4FF05170536092838FF28283CE9
:1006D00002000300040005EF060007000801093FBF
:1006E0004E464320506F696E74206F662053616CD4
:1006F00065205061796D656E7420536F6C757469F7
:100700006F6E0A0070726F636573734D61696E3A44
:100710003A206361736520340070726F6365737390
:100720004D61696E3A3A20636173652033007072DF
:100730006F636573736D61696E3A3A20556E6578C3
:10074000706563746564206572726F722E007072DA
:100750006F636573736D61696E3A3A207061796D8C
:10076000656E74207375636365737366756C2100C1
:1007700070726F636573736D61696E3A3A20446598
:1007800074656374696E67206D6F62696C65207053
:10079000686F6E650070726F636573734D61696E2B
:1007A0003A3A20636173652032310070726F63657D
:1007B00073734D61696E3A20636173652032007016
:1007C000726F636573734D61696E3A20636173651F
:1007D0002031006E66635F706F735F7472616E7359
:1007E000616374696F6E5F68616E646C65722829FD
:1007F0003A3A2052657475726E696E6720746F2084
:100800006D61696E006E66635F706F735F747261B5
:100810006E73616374696F6E5F68616E646C65723C
:1008200028293A3A205472616E73616374696F6E5D
:10083000206661696C6564207769746820657272EE
:100840006F72203A000A6E66635F706F735F747236
:10085000616E73616374696F6E5F68616E646C650D
:100860007228293A3A20556E61626C6520746F20B7
:100870006C6973742074686520504E353332206182
:100880007320706173736976652074617267657433
:10089000006E66635F706F735F7472616E73616325
:1008A00074696F6E5F68616E646C657228293A3A8C
:1008B0002053656E64696E67207061796D656E7432
:1008C00020616D6F756E740A006E66635F706F7382
:1008D0005F7472616E73616374696F6E5F68616E7D
:1008E000646C657228293A3A20496E6974696174AA
:1008F000696E67207061796D656E74207472616EC7
:1009000073616374696F6E20666F722024000A6ED3
:1009100066635F706F735F7472616E736163746935
:100920006F6E5F68616E646C657228293A3A204583
:100930006E746572696E67207472616E7361637440
:10094000696F6E206C6F6F702E2E2E0A000A6E6615
:10095000635F706F735F6D6F62696C655F70656513
:10096000725F726561647928293A3A205761697427
:10097000696E6720666F72206D6F62696C652064B6
:10098000657669636520746F2062652072656164B5
:10099000792E2E2E0A000A6E66635F706F735F7386
:1009A000656E645F6D6573736167655F746F5F70BB
:1009B00065657228293A3A206E66632E696E446135
:1009C000746145786368616E67652829206661698E
:1009D0006C6564210A000A00496E20446174613A22
:1009E0002000496E20546578743A2000496E2054E6
:1009F00072616E73616374696F6E20436F64653AF0
:100A000020000A6E66635F706F735F73656E645F6C
:100A10006D6573736167655F746F5F70656572287C
:100A2000293A3A204D6573736167652066726F6D70
:100A3000206D6F62696C652E000A004F757420444A
:100A40006174613A20004F757420546578743A20BF
:100A5000004F7574205472616E73616374696F6EB8
:100A600020436F64653A20000A6E66635F706F739F
:100A70005F73656E645F6D6573736167655F746FE7
:100A80005F7065657228293A3A204D657373616716
:100A90006520746F206D6F62696C652E000A6E664A
:100AA000635F706F735F636F6E6669677572655FB2
:100AB000626F61726428293A3A20537461727469D2
:100AC0006E67204E46432E2E2E004E07161A291D05
:100AD000532411241FBECFEFD8E0DEBFCDBF15E0F9
:100AE000A0E0B1E0EAEAFBE502C005900D92A23E6B
:100AF000B107D9F717E0A2EEB5E001C01D92A33E01
:100B0000B107E1F71AE0C2EDDAE004C02297FE0176
:100B10000E94A42ACA3CD107C9F70E94750A0C9406
:100B2000D32D0C94000008951F920F920FB60F92D0
:100B300011242F933F934F938F939F93EF93FF93A2
:100B40008091C00082FD1DC04091C6002091220608
:100B5000309123062F5F3F4F2F7330708091240612
:100B6000909125062817390771F0E0912206F0913F
:100B70002306EE51FA4F408330932306209322063A
:100B800002C08091C600FF91EF919F918F914F918C
:100B90003F912F910F900FBE0F901F901895E091ED
:100BA0007606F0917706E05CFF4F8191919120816C
:100BB0003181821B930B8F739070892B11F00E94EF
:100BC000930508951F920F920FB60F9211242F9341
:100BD0003F938F939F93EF93FF93209166063091FD
:100BE000670680916806909169062817390731F4E5
:100BF0008091C1008F7D8093C10014C0E091680690
:100C0000F0916906EA5DF94F208180916806909124
:100C1000690601968F7390709093690680936806B9
:100C20002093C600FF91EF919F918F913F912F915B
:100C30000F900FBE0F901F901895AF92BF92DF924A
:100C4000EF92FF920F931F93CF93DF93EC017A0102
:100C50008B01DD24403081EE580780E0680780E09A
:100C6000780711F0DD24D39491E0A92EB12CEC8902
:100C7000FD89DD2069F0C50108A002C0880F991F19
:100C80000A94E2F7808360E079E08DE390E005C0AC
:100C9000108260E874E88EE190E0A80197010E945C
:100CA000512A215030404040504056954795379545
:100CB000279580E12030380720F0DD2011F0DD2479
:100CC000D6CFE889F9893083EA89FB89208319A284
:100CD000EE89FF89408121E030E0C9010C8C02C01F
:100CE000880F991F0A94E2F7482B4083EE89FF8909
:100CF0004081C9010D8C02C0880F991F0A94E2F748
:100D0000482B4083EE89FF894081C9010E8C02C0C7
:100D1000880F991F0A94E2F7482B4083EE89FF89D8
:100D200080810F8C02C0220F331F0A94E2F72095B6
:100D300028232083DF91CF911F910F91FF90EF9097
:100D4000DF90BF90AF900895DC011C96ED91FC916F
:100D50001D97E05CFF4F2191319180819181281B8B
:100D6000390B2F733070C9010895DC011C96ED9189
:100D7000FC911D97E05CFF4F20813181E054F040F1
:100D8000DF01AE5BBF4F8D919C91119728173907FA
:100D900019F42FEF3FEF07C08D919C91E80FF91FD9
:100DA0008081282F30E0C9010895DC011C96ED9167
:100DB000FC911D97E05CFF4F20813181E054F040B1
:100DC000DF01AE5BBF4F8D919C91119728173907BA
:100DD00019F42FEF3FEF10C08D919C911197E80F00
:100DE000F91F20818D919C91119701968F739070BE
:100DF00011969C938E9330E0C9010895DC01919681
:100E00008C919197882339F05496ED91FC915597E8
:100E1000808186FFF9CF91961C920895CF93DF933E
:100E2000EC01EE85FF85E05CFF4F20813181E054CD
:100E3000F0402F5F3F4F2F733070DF01AE5BBF4F2D
:100E40008D919C91119728173907D1F3E05CFF4FE2
:100E500080819181E054F040E80FF91F6083EE85B6
:100E6000FF85E05CFF4F31832083EE89FF8920817D
:100E700081E090E00F8C02C0880F991F0A94E2F77E
:100E8000282B208381E089A3EC89FD8980818064FF
:100E9000808381E090E0DF91CF91089510926D06FC
:100EA00010926C0688EE93E0A0E0B0E080936E06AE
:100EB00090936F06A0937006B09371068EEA95E04A
:100EC00090936B0680936A0682EE95E09093770686
:100ED0008093760686E296E0909379068093780672
:100EE00085EC90E090937B0680937A0684EC90E00A
:100EF00090937D0680937C0680EC90E090937F0633
:100F000080937E0681EC90E090938106809380062A
:100F100082EC90E0909383068093820686EC90E0CA
:100F2000909385068093840684E08093860683E010
:100F30008093870687E08093880685E08093890602
:100F400081E080938A060895CF92DF92EF92FF921C
:100F50000F931F93CF93DF937C016B018A01C0E055
:100F6000D0E00FC0D6016D916D01D701ED91FC91DC
:100F70000190F081E02DC7010995C80FD91F0150DC
:100F800010400115110571F7CE01DF91CF911F912E
:100F90000F91FF90EF90DF90CF900895DC01ED91DD
:100FA000FC910190F081E02D09950895EF92FF9258
:100FB0000F931F938C01DC01ED91FC910190F08166
:100FC000E02D6DE009957C01D801ED91FC91019037
:100FD000F081E02DC8016AE009959C012E0D3F1DAE
:100FE000C9011F910F91FF90EF900895CF93DF9368
:100FF000EC016115710519F420E030E00FC0DB0150
:101000000D900020E9F71197A61BB70BE881F98135
:101010000280F381E02DAD0109959C01C901DF91AA
:10102000CF9108954F925F927F928F929F92AF924D
:10103000BF92CF92DF92EF92FF920F931F93DF93B5
:10104000CF93CDB7DEB7A1970FB6F894DEBF0FBE32
:10105000CDBF2C01742ECB01223008F42AE019A256
:1010600031E2C32ED12CCC0EDD1E822E9924AA246F
:10107000BB24672D752FA50194010E94512A790187
:101080008A01C801B701A50194010E941F2A472DBA
:10109000461B0894C108D1084A3014F4405D01C0D1
:1010A000495CF6014083E114F1040105110521F0CA
:1010B0007E2C5F2DC801DDCFC201B6010E94F6076C
:1010C000A1960FB6F894DEBF0FBECDBFCF91DF91D2
:1010D0001F910F91FF90EF90DF90CF90BF90AF9056
:1010E0009F908F907F905F904F900895DC01211525
:1010F000310541F4ED91FC910190F081E02D642FD8
:10110000099508950E9412080895EF92FF920F9397
:101110001F937C010E9476088C01C7010E94D607AC
:101120009C01200F311FC9011F910F91FF90EF907B
:101130000895EF92FF920F931F939A01E62EFF24DA
:1011400000E010E0B801A7010E9476081F910F91FE
:10115000FF90EF900895CF92DF92EF92FF920F935E
:101160001F936C01E62E9A01FF2400E010E0B80105
:10117000A7010E9476088C01C6010E94D607080FBD
:10118000191FC8011F910F91FF90EF90DF90CF9032
:101190000895CF92DF92EF92FF920F931F93CF9318
:1011A000DF93EC016A017B012115310541F4E881EF
:1011B000F9810190F081E02D642F09951FC02A303C
:1011C0003105D1F477FF17C0E881F9810190F081F2
:1011D000E02D6DE209958C0144275527BA014C1981
:1011E0005D096E097F09CE012AE00E94120898016C
:1011F000280F391F04C02AE00E9412089C01C9016F
:10120000DF91CF911F910F91FF90EF90DF90CF90E2
:101210000895CF92DF92EF92FF920F931F936C018C
:101220007B019A010027F7FC0095102FB801A70158
:101230000E94C9088C01C6010E94D607080F191F19
:10124000C8011F910F91FF90EF90DF90CF9008950C
:101250000E94F6070895EF92FF920F931F937C016F
:101260000E94F6078C01C7010E94D607080F191FBC
:10127000C8011F910F91FF90EF900895813041F0C8
:10128000813018F08230D1F409C010926E000895B8
:1012900080916F008D7F80936F0008958091700022
:1012A0008D7F8093700081E08093B0008091B100C9
:1012B000887F84608093B1001092B30008951F93DB
:1012C000182F80916205811711F09FEF06C0E8E6A4
:1012D000F0E094918FEF80936205892F0E943E0980
:1012E000812F60E00E94EB0B1F9108951F920F92D7
:1012F0000FB60F9211242F933F934F935F936F93E9
:101300007F938F939F93AF93BF93EF93FF938091BE
:101310008C0690918D06A0918E06B0918F06009755
:10132000A105B10551F1E0919006F09191068081FF
:10133000909192068927808380918C0690918D06EA
:10134000A0918E06B0918F06181619061A061B0674
:10135000C4F480918C0690918D06A0918E06B09178
:101360008F060197A109B10980938C0690938D0691
:10137000A0938E06B0938F0604C0809162050E94F0
:101380005F09FF91EF91BF91AF919F918F917F91F5
:101390006F915F914F913F912F910F900FBE0F90E2
:1013A0001F9018951F920F920FB60F9211242F9332
:1013B0003F934F935F936F937F938F939F93AF93DD
:1013C000BF93EF93FF938091930690919406892B9E
:1013D00029F0E0919306F09194060995FF91EF9121
:1013E000BF91AF919F918F917F916F915F914F913D
:1013F0003F912F910F900FBE0F901F9018951F9245
:101400000F920FB60F9211242F933F934F935F9338
:101410006F937F938F939F93AF93BF93EF93FF93BC
:101420008091950690919606892B29F0E09195067A
:10143000F09196060995FF91EF91BF91AF919F9121
:101440008F917F916F915F914F913F912F910F906D
:101450000FBE0F901F9018952F923F924F925F9260
:101460006F927F928F929F92AF92BF92CF92DF92B4
:10147000EF92FF920F931F93DF93CF93CDB7DEB719
:101480003B014C0119012A016D897E898F89988D54
:101490006A197B098C099D09621A730A840A950AE4
:1014A000A40193010E941F2AE218F30804091509F8
:1014B000A80197010E94732A2A0D3B1D4C1D5D1D3A
:1014C000B901CA01CF91DF911F910F91FF90EF9069
:1014D000DF90CF90BF90AF909F908F907F906F9054
:1014E0005F904F903F902F900895CF93DF930E948D
:1014F000220B0E946522CFECD5E00E945024209759
:10150000E1F30E94CF05F9CF1F920F920FB60F9211
:1015100011242F933F938F939F93AF93BF93809109
:101520009B0690919C06A0919D06B0919E063091DD
:101530009F060196A11DB11D232F2D5F2D3720F091
:101540002D570196A11DB11D20939F0680939B06E8
:1015500090939C06A0939D06B0939E06809197065B
:1015600090919806A0919906B0919A060196A11DB6
:10157000B11D8093970690939806A0939906B09317
:101580009A06BF91AF919F918F913F912F910F90AC
:101590000FBE0F901F9018959FB7F8942091970653
:1015A000309198064091990650919A0686B5A89B6D
:1015B00006C08F3F21F02F5F3F4F4F4F5F4F9FBFC0
:1015C000542F432F322F2227280F311D411D511D2B
:1015D00082E0220F331F441F551F8A95D1F7B901AE
:1015E000CA010895EF92FF920F931F93CF93DF9359
:1015F0007B018C010E94CC0AEB010EC00E94CC0A38
:101600006C1B7D0B685E7340C8F30894E108F10819
:1016100001091109C851DC4FE114F104010511055C
:1016200069F7DF91CF911F910F91FF90EF9008958F
:10163000019739F0880F991F880F991F029701971A
:10164000F1F70895789484B5826084BD84B5816093
:1016500084BD85B5826085BD85B5816085BDEEE6BA
:10166000F0E0808181608083E1E8F0E01082808199
:1016700082608083808181608083E0E8F0E0808107
:1016800081608083E1EBF0E0808184608083E0EB27
:10169000F0E0808181608083EAE7F0E0808184600F
:1016A000808380818260808380818160808380816B
:1016B000806880831092C1000895982F8E3008F0C2
:1016C0009E509770809163058295880F880F807C6B
:1016D000892B80937C0080917A00806480937A00CB
:1016E00080917A0086FDFCCF2091780040917900AE
:1016F000942F80E030E0282B392BC9010895CF9337
:10170000DF93482F50E0CA0185569F4FFC0134916A
:1017100049575F4FFA018491882369F190E0880F5F
:10172000991FFC01E759FF4FA591B491FC01ED58B9
:10173000FF4FC591D491662351F42FB7F8948C9143
:10174000932F909589238C93888189230BC06230D5
:1017500061F42FB7F8948C91932F909589238C93F3
:101760008881832B88832FBF06C09FB7F8948C9104
:10177000832B8C939FBFDF91CF910895833071F0BD
:10178000843028F48130A1F0823021F514C08630F5
:10179000B1F08730D1F08430E9F404C0809180004A
:1017A0008F7703C0809180008F7D809380000895A3
:1017B00084B58F7702C084B58F7D84BD08958091F4
:1017C000B0008F778093B00008958091B0008F7D36
:1017D0008093B0000895FF920F931F93F62E482F29
:1017E00050E0CA0181559F4FFC012491CA018556E2
:1017F0009F4FFC01149149575F4FFA010491002358
:10180000C9F0222319F0822F0E94BE0BE02FF0E0D6
:10181000EE0FFF1FED58FF4FA591B4919FB7F894BD
:10182000FF2021F48C911095812302C08C91812B93
:101830008C939FBF1F910F91FF9008950F931F935B
:10184000482F50E0CA0181559F4FFC012491CA01E5
:1018500085569F4FFC01049149575F4FFA0114913F
:10186000112319F420E030E015C0222319F0822F53
:101870000E94BE0B812F90E0880F991F83589F4FC5
:10188000FC01A591B4918C9120E030E0802311F00F
:1018900021E030E0C9011F910F910895FC0175838B
:1018A0006483718760875783468353874287158A8D
:1018B000158614861786168621E0248B8FEF9FEFFE
:1018C000938B828B918B808B268B08952F923F92E6
:1018D0004F925F926F927F928F929F92AF92BF9240
:1018E000CF92DF92EF92FF920F931F93DF93CF93EC
:1018F00000D000D0CDB7DEB73C017C836B836A019A
:101900005901FA82E982222433249801241B350BE1
:1019100037FF03C0309521953F4FC5014B815C8156
:10192000841B950B97FF03C0909581959F4F82175D
:1019300093075CF481E0282E312CC601CB80DC803B
:101940009C838B83C80185015C018B819C81A816D7
:10195000B90644F4C501AB80BC809C838B83C8016D
:1019600086016C012501AB81BC814A1A5B0A7801B2
:10197000EC18FD08F7FE04C0F094E194F108F3942C
:10198000C016D10624F088248A94982C03C0B1E0B4
:101990008B2E912CC20162E070E00E943E2A8B01E6
:1019A00025C0D301ED91FC912114310441F0048054
:1019B000F581E02DC301B6014B815C8107C0048035
:1019C000F581E02DC3016B817C81A60129813A81DB
:1019D00009950E191F0917FF04C0C80CD91C040D66
:1019E000151DEB81FC813196FC83EB834B815C817F
:1019F000A416B506B4F60F900F900F900F90CF91EC
:101A0000DF911F910F91FF90EF90DF90CF90BF90EB
:101A1000AF909F908F907F906F905F904F903F908E
:101A20002F9008954F925F926F927F928F929F9224
:101A3000AF92BF92CF92DF92EF92FF920F931F93DC
:101A40006C015B014A0139012801DC01ED91FC9137
:101A50000484F585E02D87010995D601ED91FC916F
:101A6000A40141505040440D551D0484F585E02DDE
:101A7000C601B50193010995D601ED91FC9102844F
:101A8000F385E02DC601B501A40192010995D601A7
:101A9000ED91FC910894A108B108A60CB71C028432
:101AA000F385E02DC601B501A401920109951F91AE
:101AB0000F91FF90EF90DF90CF90BF90AF909F90ED
:101AC0008F907F906F905F904F9008952F923F92EC
:101AD0004F925F926F927F928F929F92AF92BF923E
:101AE000CF92DF92EF92FF920F931F93DF93CF93EA
:101AF000CDB7DEB72F970FB6F894DEBF0FBECDBFC0
:101B00005C015E834D8318870F83FA86E986CB8656
:101B1000DC0118968D919C911997681779070CF044
:101B2000A4C01A968D919C911B97481759070CF0E9
:101B30009CC0EC2DF0E0FF87EE87CF01880F991F46
:101B4000880F991F8E0F9F1F860F971F1816190653
:101B50000CF08BC0CF01F3E0880F991FFA95E1F7E5
:101B6000840F951F181619060CF07FC085E0289F7A
:101B7000A00111245A8349832B011B011C825C8123
:101B8000553011F480E005C0E981FA81ED53FF4F33
:101B900084912C863D866D807E8043011B82C82EF9
:101BA000DD2480FF1CC0D501ED91FC91BB85B130D7
:101BB00049F40480F581E02DC501B201A3012F8114
:101BC000388522C00088F189E02DC5016C857D85AE
:101BD000A4012E853F858901EF80F88423C0E98523
:101BE000FA852F813885E217F307E9F0D501ED91E9
:101BF000FC91BB85B13051F40480F581E02DC50125
:101C0000B201A30129853A8509950DC00088F189A3
:101C1000E02DC5016C857D85A4012E853F85890158
:101C2000E984FA840995EB81EF5FEB832E853F858C
:101C3000820E931E0894611C711CE83021F0D5942B
:101C4000C7948C2DACCF3C813F5F3C834E855F8534
:101C5000240E351E0894411C511C89819A810196DD
:101C60009A838983363009F08ACF2F960FB6F8947D
:101C7000DEBF0FBECDBFCF91DF911F910F91FF90BF
:101C8000EF90DF90CF90BF90AF909F908F907F901C
:101C90006F905F904F903F902F900895CF92EF926A
:101CA000FF920F931F93CF93DF93EC01262F6A309F
:101CB00061F42C8930E013E0220F331F1A95E1F70D
:101CC0008E859F85820F931F37C06D30C9F16C855B
:101CD0007D854E855F8508891989EA88FB88CC88CF
:101CE0000E94660D2C8986E0289FB00111248C8506
:101CF0009D85680F791F7D876C878E89882301F108
:101D0000422F50E08AEF9FEF9C01429FC001439F0A
:101D1000900D529F900D112428853985820F931FB5
:101D2000861797076CF4B3E0440F551FBA95E1F797
:101D30008E859F85840F951F9F878E871D861C86A5
:101D400081E090E0DF91CF911F910F91FF90EF9094
:101D5000CF900895FC01758764875787468708955B
:101D6000FC01662309F461E0648B0895FC01718B2A
:101D7000608B738B628B0895FC016370658B61309F
:101D800081F0613028F0623019F0633091F409C0BD
:101D900084819581918780878681978193878287C7
:101DA0000895868197819187808784819581938723
:101DB000828708950895FC01808591850895FC012E
:101DC000828593850895682F86E297E00E945E1AC7
:101DD0000895CF92DF92EF92FF920F931F93CF93CC
:101DE000DF936B01142F1F5F62E070E080E090E0F2
:101DF0000E94F20A86E297E064E270E00E94DC1939
:101E000080E00E94E30E80E00E94E30E8FEF0E94CC
:101E1000E30E812F0E94E30E812F81950E94E30E35
:101E200084ED0E94E30E83EDE82EFF24C12FD0E065
:101E300021970BC08601080F191FF80180810E94AD
:101E4000E30EF8018081E80EF3948F2D90E08C175B
:101E50009D0784F38E2D80950E94E30E80E00E9402
:101E6000E30E86E297E00E94A11ADF91CF911F91C5
:101E70000F91FF90EF90DF90CF900895EF92FF9237
:101E80000F931F93DF93CF930F92CDB7DEB7162F2B
:101E90007983042F62E070E080E090E00E94F20A13
:101EA0008AE696E060E071E00E942809402F4E5FCC
:101EB00086E297E064E20E94B21A86E297E00E940E
:101EC000EF19212F3981C9017C0110E01CC061E0AC
:101ED00070E080E090E00E94F20A86E297E00E94C3
:101EE000EF19F70180838AE696E06AE071E00E94CC
:101EF00028098AE696E0F70161917F0140E150E010
:101F00000E9499081F5F101710F38AE696E00E945E
:101F1000D6070F90CF91DF911F910F91FF90EF9017
:101F20000895FC0180810E941E0C90E0813009F030
:101F300091E0892F0895EF92FF920F931F93CF9313
:101F4000DF937C018B018AE696E06EE071E00E94EF
:101F50002B09C0E0D0E015C00115110561F02A96EB
:101F60000C171D0740F48AE696E063E371E00E94D7
:101F70002B0980E012C06AE070E080E090E00E94EF
:101F8000F20AC7010E94910F813031F78AE696E08C
:101F900067E471E00E942B0981E0DF91CF911F91EE
:101FA0000F91FF90EF9008950F931F93DF93CF93BE
:101FB00000D000D000D0CDB7DEB78E010F5F1F4F2D
:101FC000B80146E00E943E0FC80164E675E046E0B5
:101FD00050E00E94E52A9C0180E0232B09F481E077
:101FE00026960FB6F894DEBF0FBECDBFCF91DF911E
:101FF0001F910F910895EF92FF920F931F93CF932C
:10200000DF938C0179010E94E90EC0E0D0E00FC09F
:10201000E114F10431F02A96EC16FD0610F480E08C
:1020200010C06AE070E080E090E00E94F20AC8010F
:102030000E94910F813061F7C8010E94D40F811175
:1020400081E0DF91CF911F910F91FF90EF90089564
:102050001F93CF93DF93EC018AE48093A00681E085
:102060008093A1061092A2068AE696E06BE571E0E5
:102070000E942B09CE0160EA76E043E028EE33E0CF
:102080000E94FB0F882329F48AE696E06AE771E054
:102090007CC0CE0160E375E70E949B0F882309F4A2
:1020A00077C0CE0160EA76E040E40E943E0F809166
:1020B000A006882309F065C08091A106882309F055
:1020C00060C08091A2068F3F09F05BC01091A3060B
:1020D000912F91958091A4068917C9F08AE696E020
:1020E00068E971E00E942B098AE696E0612F40E1E1
:1020F00050E00E94AB08612F70E0709561957F4FB2
:102100008AE696E040E150E00E94090940C08091D3
:10211000A506853D79F58091A6068B3459F5809109
:10212000A7068130A9F08AE696E06DEA71E00E9488
:102130002B098AE696E062ED71E00E942B098AE69F
:1021400096E06091A7064AE050E00E94AB081FC0ED
:102150008091A806888B8AE696E06BEE71E00E947B
:1021600028098AE696E068894AE050E00E94AB08B8
:1021700081E00EC08AE696E068EF71E00E942809CF
:1021800006C08AE696E063E272E00E942B0980E0D6
:10219000DF91CF911F910895CF92DF92EF92FF923E
:1021A0000F931F93CF93DF93EC01D22EC32E7801B0
:1021B0004F3328F08AE696E064E372E0A6C080E43C
:1021C0008093A00688898093A106A2EAB6E0FB016D
:1021D00002C081918D938E2F861B8417D0F34E5FA2
:1021E000CE0160EA76E028EE33E00E94FB0F882300
:1021F00029F48AE696E06BE572E087C08AE696E00D
:102200006FE672E00E942B09CE0168EE73E00E9437
:102210009B0F882329F48AE696E06AE972E075C08C
:10222000CE0160EA76E040E40E943E0F8091A00675
:10223000882309F066C08091A106882309F061C057
:102240008091A2068F3F09F05CC01091A3062091F7
:10225000A406812F81952817C9F08AE696E068E9DF
:1022600071E00E942B098AE696E0612F40E150E080
:102270000E94AB08612F70E0709561957F4F8AE6F0
:1022800096E040E150E00E94090941C09091A50606
:10229000953DF9F48091A6068134D9F4612F6350FD
:1022A000F7014081641708F4462FE8EAF6E08D2D27
:1022B0009C2D9C01D901242F30E02E0F3F1F02C01E
:1022C00081918D93E217F307D9F7F701408381E0FD
:1022D0001FC02F3F39F49F3729F48AE696E06EEB52
:1022E00072E004C08AE696E065EE72E00E9428097A
:1022F0008AE696E06091A60640E150E00E94AB08B5
:1023000006C08AE696E063E272E00E942B0980E054
:10231000DF91CF911F910F91FF90EF90DF90CF90C1
:102320000895CF93DF93EC0194E19093A00681E0B0
:102330008093A1069093A2068093A306CE0160EA43
:1023400076E044E028EE33E00E94FB0F882311F48E
:1023500090E00CC0CE0160EA76E048E00E943E0FBB
:1023600090E08091A606853109F491E0892FDF91F4
:10237000CF910895CF93DF93EC0182E08093A00684
:10238000CE0160EA76E041E028EE33E00E94FB0FE8
:102390008823E9F1CE0160EA76E04CE00E943E0F2E
:1023A00080EA96E06AE675E046E050E00E94E52AA1
:1023B000009769F52091A70630E040E050E0542FE7
:1023C000432F322F22278091A80690E0A0E0B0E0B2
:1023D000282B392B4A2B5B2B542F432F322F2227AC
:1023E0008091A90690E0A0E0B0E0282B392B4A2B81
:1023F0005B2B542F432F322F22278091AA0690E087
:10240000A0E0B0E0282B392B4A2B5B2B04C020E046
:1024100030E040E050E0B901CA01DF91CF9108956A
:102420000F931F938C0186E297E00E94B61AF80181
:10243000818161E00E94EB0BF801818160E00E94E4
:10244000EB0B60E971E080E090E00E94F20AF80195
:10245000818161E00E94EB0B1F910F9108950F9312
:102460001F938C01862FF8016083418360E00E94F6
:102470007F0BF801818161E00E947F0B1F910F911A
:102480000895EF92FF920F931F9343984298FC0197
:102490008789882341F48BB18F728BB985B1807D98
:1024A00085B94198419A8BB18F728BB985B1807D86
:1024B000826285B94198419A429A8BB1F0EDEF2E34
:1024C000E7228F728E298BB985B1EFE2FE2EF722BB
:1024D000807D8F2985B94198419A8BB1062F007D67
:1024E0008F72802B8BB985B1162F1F72807D812B47
:1024F00085B94198419A2150304040405040DA011E
:10250000C90136E0B695A795979587953A95D1F785
:10251000FC01761709F076C014C080E14198419A19
:102520004198419A4198419A4198419A4198419ADB
:102530004198419A4198419A4198419A815071F746
:102540003197309751F72F7305C04198419A4198C0
:10255000419A21502223C9F771C090E18BB18F724B
:102560008E298BB985B1807D8F2985B94198419A93
:102570008BB18F72802B8BB985B1807D812B85B912
:102580004198419A8BB18F728E298BB985B1807D2C
:102590008F2985B94198419A8BB18F72802B8BB965
:1025A00085B1807D812B85B94198419A8BB18F721D
:1025B0008E298BB985B1807D8F2985B94198419A43
:1025C0008BB18F72802B8BB985B1807D812B85B9C2
:1025D0004198419A8BB18F728E298BB985B1807DDC
:1025E0008F2985B94198419A8BB18F72802B8BB915
:1025F00085B1807D812B85B94198419A915009F030
:10260000ADCF3197309709F0A8CF2F7315C08BB19C
:102610008F728E298BB985B1807D8F2985B94198BC
:10262000419A8BB18F72802B8BB985B1807D812BC4
:1026300085B94198419A2150222349F7439A1F9125
:102640000F91FF90EF9008954098409A99B183B10F
:102650008F72907D892B089542988BB1962F907D33
:102660008F72982B9BB985B16F72807D862B85B94F
:102670004198419A429A8BB1942F907D8F72982BFA
:102680009BB985B14F72807D842B85B94198419A61
:10269000089542988BB1972F907D8F72982B9BB99C
:1026A00085B17F72807D872B85B94198419A8BB126
:1026B000962F907D8F72982B9BB985B16F72807D1C
:1026C000862B85B94198419A429A8BB1952F907D7E
:1026D0008F72982B9BB985B15F72807D852B85B9F0
:1026E0004198419A8BB1942F907D8F72982B9BB912
:1026F00085B14F72807D842B85B94198419A0895A8
:1027000042988BB1962F907D8F72982B9BB985B193
:102710006F72807D862B85B94198419A429A8BB120
:10272000932F907D8F72982B9BB985B13F72807DDE
:10273000832B85B94198419A42988BB1942F907D13
:102740008F72982B9BB985B14F72807D842B85B990
:102750004198419A429A8BB1922F907D8F72982B1B
:102760009BB985B12F72807D822B85B94198419AA2
:102770000895CF92DF92EF92FF920F931F93CF9322
:10278000DF938C01EB017A01690177FD90C057FD61
:102790008EC0FC0180859185681779070CF087C091
:1027A00082859385481759070CF081C04398878923
:1027B0008823A1F58589823059F08330B1F08130CA
:1027C000D1F48FEE90E0841B950B7B01EC0113C0DC
:1027D0008FEE90E09C01261B370BE9018FE391E01F
:1027E000FC01E41BF50B7F0106C08FE391E0861B23
:1027F000970BEA017C01C80160E270E0AE010E9423
:102800004913C80161E270E0A7010E944913C801A1
:1028100062E270E0A6010E94491348C0813009F0CD
:1028200045C0F8018589823041F0833041F0813024
:1028300011F440E605C040E003C040EC01C040EAAE
:10284000C80166E10E942C13C80162E043E09E01CA
:102850000E948013C80166E047E097010E94801340
:1028600042988BB18F728BB985B1807D826285B9B8
:102870004198419A429A8BB19D2D907D8F72982BF1
:102880009BB985B1FFE2DF22807D8D2985B9419812
:10289000419A8BB19C2D907D8F72982B9BB985B1FD
:1028A000CF22807D8C2985B94198419A439ADF9146
:1028B000CF911F910F91FF90EF90DF90CF900895EF
:1028C0000F931F938C014398FC0120853185215083
:1028D000304064E045E00E948013F8012285338592
:1028E00021503040C80168E049E00E948013439ABB
:1028F0001F910F9108956F927F928F929F92AF9246
:10290000BF92CF92DF92EF92FF920F931F93CF93DC
:10291000DF936C01FB017A01590148014398DC0106
:1029200057968C915797882309F05CC055968C91E7
:102930008230A9F0833029F1813021F0E9013B0197
:102940005A012BC08FEE90E0EC01C41BD50B7B012C
:1029500089013E015B01FC01E819F9091EC02FEE57
:1029600030E0E901C61BD70B8FE391E08C01041B1B
:10297000150BF901EA19FB097C01E818F9083E0179
:102980000BC08FE391E08C01061B170BFA01E401E9
:102990003A017C01E21AF30A5801C60160E570E0D1
:1029A000AF010E944913C60161E570E0AE010E94CB
:1029B0004913C60162E570E0A7010E944913C601F0
:1029C00063E570E0A8010E944913C60160E270E06F
:1029D000A3010E944913C60161E270E0A5010E94B3
:1029E00049131AC08130C1F4C60162E043E09F017F
:1029F0000E948013C60166E047E097010E948013A1
:102A0000C60164E045E095010E948013C60168E0BC
:102A100049E098010E948013439ADF91CF911F9162
:102A20000F91FF90EF90DF90CF90BF90AF909F906D
:102A30008F907F906F900895EF92FF920F931F9366
:102A4000CF93DF93EC017B018F89882319F58D8962
:102A5000823061F0833069F0813019F44FEE50E03C
:102A600002C040E050E000E010E007C04FEE50E050
:102A700002C040E050E00FE311E04398CE0160E275
:102A800070E00E944913CE0161E270E0A8010E944B
:102A9000491311C0813079F428853985215030409F
:102AA0000A851B8501501040CE0160E070E040E0D7
:102AB00050E00E947B14CE01B70120E03CE241E0EF
:102AC00050E00E944112DF91CF911F910F91FF9032
:102AD000EF9008958F929F92AF92BF92CF92DF9224
:102AE000EF92FF920F931F93CF93DF93EC01D901E5
:102AF00058014701121613060CF06BC01016110690
:102B00000CF067C088859985681779070CF061C05B
:102B1000EA85FB854E175F070CF05BC06901C60EA6
:102B2000D71E96012150304037FD53C07801E40E86
:102B3000F51E8701015010400AF047C04AC060E00E
:102B400070E057FD02C0750102C040E050E0281758
:102B5000390734F09C01215030406C01C61AD70A65
:102B60000E171F0734F08F01015010407F01E41A47
:102B7000F50ACE010E947B14B701882777FD809566
:102B8000982F9601442737FD4095542F0E941F2A05
:102B90009B01AC01CE01B4010E9441128F898823B0
:102BA00081F428853985215030400A851B850150E4
:102BB0001040CE0160E070E040E050E00E947B14E5
:102BC00008C0CE010E94601404C077FDB8CF6D012B
:102BD000B8CFDF91CF911F910F91FF90EF90DF90D1
:102BE000CF90BF90AF909F908F900895CF92DF923B
:102BF000EF92FF920F931F93CF93DF93EC01FB01B2
:102C00006801121613060CF049C077FD47C088858D
:102C10009985681779070CF041C08A859B8548170C
:102C20005907E4F57901E40EF51E870101501040C3
:102C30008AF534C040E050E00817190734F08C01E1
:102C4000015010407C01E41AF50ACE01BF019F013A
:102C50000E947B149701442737FD4095542FCE01E5
:102C6000B6010E9441128F89882381F42885398515
:102C7000215030400A851B8501501040CE0160E094
:102C800070E040E050E00E947B1408C0CE010E943A
:102C9000601404C057FDCECF7901CECFDF91CF9124
:102CA0001F910F91FF90EF90DF90CF900895CF92FA
:102CB000DF92EF92FF920F931F93CF93DF93EC017C
:102CC000FA01A9016801121613060CF049C0F7FDBC
:102CD00047C08A859B85E817F9070CF041C08885B5
:102CE000998568177907E4F57901E60EF71E9701D3
:102CF000215030408AF534C060E070E02817390771
:102D000034F09C01215030407C01E61AF70ACE01D4
:102D1000AF018F010E947B149701442737FD409536
:102D2000542FCE01B6010E9441128F89882381F46D
:102D300028853985215030400A851B850150104077
:102D4000CE0160E070E040E050E00E947B1408C0DB
:102D5000CE010E94601404C077FDCECF7A01CECFA1
:102D6000DF91CF911F910F91FF90EF90DF90CF9067
:102D70000895EF92FF920F931F937C01439842981E
:102D80008BB18F728BB985B1807D85B94198419A9D
:102D90008BB18F728BB985B1807D85B94198419A8D
:102DA0008AB18F728AB984B1807D84B9429A8AE0EF
:102DB00090E00E94180BC7010E942413182F00E016
:102DC0008AE090E00E94180BC7010E942413439AE6
:102DD0009AB1906D9AB994B19F6294B9282F30E05E
:102DE000202B312BC9011F910F91FF90EF90089577
:102DF0000F931F93CF93DF93EC010E94BC0E439877
:102E00008F89882331F58D89823051F0833059F0D4
:102E1000813019F448E250E108C040E350E105C0B8
:102E200040E050E102C048E150E1CE0163E070E0D3
:102E30000E94491328853985215030400A851B8519
:102E400001501040CE0160E070E040E050E00E9490
:102E50007B148F898130A9F48D89823041F08330D1
:102E600041F0813011F440E605C040E003C040EC81
:102E700001C040EACE0166E10E942C13CE010E94FF
:102E80006014DF91CF911F910F910895439A429A58
:102E9000419A409A85E060E00E94EB0B62E070E0AE
:102EA00080E090E00E94F20A85E061E00E94EB0B76
:102EB0004398429A8BB18F728BB985B1807D85B969
:102EC0004198419A80E04198419A8F5F8730D9F7C5
:102ED000439A64E670E080E090E00E94F20A089570
:102EE0000F931F93CF93DF93EC018B0160EF70E0A2
:102EF00040E451E00E944E0CCE010E94461783E947
:102F00000532180721F083E90832180799F51F8A5E
:102F1000439800E010E0F801EE0FFF1FE254FA4F73
:102F200065917491F801EE0FFF1FE054FA4F45913F
:102F300054916F3F710531F4BA0180E090E00E9436
:102F4000F20A03C0CE010E9449130E5F1F4F0636DE
:102F5000110509F7CE016D890E94F816CE0160E0D7
:102F600070E040E050E02FEE30E00FE311E00E940F
:102F70007B142BC00557154731F581E08F8B4398A3
:102F800000E010E0F801E657F94F6491F801E557C9
:102F9000F94F44916F3F39F4642F70E080E090E086
:102FA0000E94F20A03C0CE010E942C130E5F1F4F35
:102FB0000635110539F7CE016D890E94F816CE014C
:102FC0000E94601402C08FEF8F8BDF91CF911F9111
:102FD0000F9108950F931F938C01439A419A409A41
:102FE000429A85E061E00E94EB0B81E161E00E9482
:102FF0007F0B80E161E00E947F0B8FE061E00E9427
:103000007F0B8EE061E00E947F0B85E061E00E9413
:103010007F0B8AB1806D8AB984B18F6284B9F8015F
:10302000158A158614861786168681E0848B8FEFA5
:103030009FEF918B808B80EF90E09187808780E479
:1030400091E0938782871F910F910895FC0113826D
:1030500012828EEB95E091838083CF010E94EA1764
:103060000895FC0113821282118210820895EF925A
:10307000FF920F93FC014283248303836583F782CD
:10308000E6828AE090E0918380830F91FF90EF9039
:1030900008952F923F924F925F926F927F928F92FC
:1030A0009F92AF92BF92CF92DF92EF92FF920F93D7
:1030B0001F93DF93CF93CDB7DEB760970FB6F89429
:1030C000DEBF0FBECDBF6C01FC018581A82FB0E033
:1030D000FD01E957FF4FA490F6018281682F70E04F
:1030E000FB01E957FF4F0491F6019481492F50E00D
:1030F000FA01E957FF4F4490F6019381892E9924F4
:10310000940129573F4FF901B490A556BF4FFD01D7
:10311000F491FB8765567F4FFB01F491FA87455682
:103120005F4FFA0154902BE930E0820E931EF401B8
:10313000F491F98760E00E947F0BF601838160E0E3
:103140000E947F0B602E7724660C771C23E730E00B
:10315000620E731EF301E590F490F7018081FA8509
:10316000F095F88B8F23F70180838B2C9924880CA2
:10317000991C820E931EF401A591B4918C919985AE
:10318000909589238C93F601858161E00E947F0BE5
:10319000F601848161E00E947F0BBB24AA0CBB1C5A
:1031A00023E730E0A20EB31EF50105911491F8015A
:1031B0008081FB858F2BF8018083842D90E0880F20
:1031C000991F820F931FFC01A591B4918C9150948B
:1031D00085218C93F60182810E945D0B98878F83F5
:1031E000F60182810E945D0B1C018FEF482E83E067
:1031F000582E42185308F601858160E00E947F0B2B
:10320000F601848160E00E947F0BF8018081FB85DC
:10321000F095FF878F23F8018083F601828161E0BA
:103220000E947F0BF7018081FA858F2BF701808345
:10323000F601838161E00E947F0BF60184810E9488
:103240005D0B8C01F60184810E945D0B9E878D874A
:103250000817190711F01C8608C01C862F813885B5
:103260002215330511F431E03C87F601858161E0D8
:103270000E947F0BF501A591B4918C91FF858F235E
:103280008C93F401A591B4918C91F9858F2B8C933B
:10329000F301A591B4918C91F8898F238C93F60159
:1032A000828160E00E947F0BF60184810E945D0BA9
:1032B0005C01F60182810E945D0B9C01F601C680D3
:1032C000D780C114D10409F441C0B901882777FD22
:1032D0008095982F0E9430297B018C01B5018827A9
:1032E00077FD8095982F0E9430299B01AC01C80181
:1032F000B7010E94952820E030E040E85FE30E949B
:1033000030287B018C01B201882777FD8095982FAA
:103310000E9430299B01AC01C801B7010E94BC2961
:103320007B018C01B60180E090E00E942E299B0178
:10333000AC01C801B7010E94BC2920E030E040E8A0
:103340005AE30E94BC290E94FD2805C0B5016150C6
:103350007C4F681B790BFC85FF2311F460E070E063
:103360007E836D834FEF53E02D853E85421B530BCB
:103370005C834B835A824982242D3A818C817E81E1
:10338000582F80E090E060960FB6F894DEBF0FBE35
:10339000CDBFCF91DF911F910F91FF90EF90DF9004
:1033A000CF90BF90AF909F908F907F906F905F90E5
:1033B0004F903F902F90089581E080932507609370
:1033C0000207109223071092240708952091010705
:1033D00030E080910007281B3109C9010895409110
:1033E000000780910107481718F02FEF3FEF0AC040
:1033F000E42FF0E0E052F94F8081282F30E04F5F5A
:1034000040930007C9010895E091000780910107EA
:10341000E81718F0EFEFFFEF06C0F0E0E052F94FC9
:103420008081E82FF0E0CF010895089510922907D8
:103430001092280788EE93E0A0E0B0E080932A077E
:1034400090932B07A0932C07B0932D0786ED95E062
:1034500090932707809326070895CF92DF92EF92EB
:10346000FF920F931F93CF93DF937C016B018A012F
:10347000809125078823A1F0C0E0D0E00DC0D701DE
:10348000ED91FC91D601AC0FBD1F0190F081E02DB4
:10349000C7016C9109952196C017D10780F304C02C
:1034A000CB01642F0E945F1BC801DF91CF911F9158
:1034B0000F91FF90EF90DF90CF900895DF93CF931F
:1034C0000F92CDB7DEB7FC01698380912507882371
:1034D000C9F080912407803238F081E090E0938336
:1034E000828320E030E015C080912307E82FF0E0D0
:1034F000ED5FF84F998190838F5F809323078093CE
:10350000240705C0CE01019661E00E945F1B21E007
:1035100030E0C9010F90CF91DF9108950F93062FEE
:103520008091020763E077E04091240721E00E9448
:103530000A1B1092230710922407109225070F915F
:10354000089561E00E948E1A0895413208F040E229
:10355000862F60EE76E00E94C11A109200078093D9
:103560000107089521E00E94A51A0895109200070E
:103570001092010710922307109224070E940B1D3E
:103580000895382F413210F040E042C08091320758
:103590008823E1F791E090933207209334078FEF6F
:1035A00080939F0710925A07415040935B074F5FEB
:1035B0009093330780913307330F832B8093330726
:1035C00080913507813041F410923507809133079F
:1035D0008093BB0085EC01C085EE8093BC00809198
:1035E00032078130E1F380915A07841710F440913B
:1035F0005A0720E030E00AC0FB01E20FF31FD901B7
:10360000A65CB84F8C9180832F5F3F4F2417A0F3A7
:10361000842F08950F931F93582F122F413210F0CB
:1036200081E04AC0809132078823E1F782E08093ED
:103630003207009334078FEF80939F0710925A0749
:1036400040935B07AAE3B7E0FB0102C081918D9331
:103650008E2F861B8417D0F3109233078091330787
:10366000550F852B8093330780913507813041F4C6
:1036700010923507809133078093BB0085EC01C021
:1036800085EE8093BC00112321F0809132078230B7
:10369000E1F380919F078F3F11F480E00DC080918E
:1036A0009F07803211F482E007C080919F0780332A
:1036B00011F084E001C083E01F910F910895482F1D
:1036C000613210F081E0089580913207843011F06A
:1036D00082E0089560937D07ACE5B7E0842F9C01FC
:1036E000F90102C081918D938E2F841B8617D0F330
:1036F00080E008951F920F920FB60F9211242F931E
:103700003F934F935F936F937F938F939F93AF9369
:10371000BF93EF93FF938091B90090E0887F907002
:103720008036910509F4F2C081369105CCF58832D6
:10373000910509F47BC089329105B4F4803191057B
:1037400009F46FC0813191053CF4009709F447C139
:10375000089709F04FC165C08831910509F466C02A
:10376000809709F047C182C08034910509F4A4C054
:103770008134910544F48033910509F482C0C897DF
:1037800009F038C189C08035910509F489C08835B0
:10379000910509F496C08834910509F02BC1AEC09B
:1037A0008839910509F413C189399105ECF48837FA
:1037B000910509F4ABC0893791054CF48836910521
:1037C00009F4A4C08037910509F014C19FC088385E
:1037D000910509F4FCC08039910509F49DC0803839
:1037E000910509F007C198C0803B910509F4C6C056
:1037F000813B91054CF4803A910509F49FC0883AC9
:10380000910509F0F7C0BAC0803C910509F4E3C006
:10381000883C910509F4DFC0883B910509F0EAC0B6
:10382000C2C0809133078093BB00CFC090915A07EC
:1038300080915B07981768F490915A07E92FF0E0A0
:10384000E65CF84F80818093BB009F5F90935A079E
:10385000BCC080913407882309F44BC085ED809368
:10386000BC008091BC0084FDFCCFC2C080E280938C
:103870009F0785ED8093BC008091BC0084FDFCCF48
:10388000B7C080E380939F0785ED8093BC00809153
:10389000BC0084FDFCCFACC088E380939F079BC035
:1038A00080915A079091BB00E82FF0E0E65CF84F5A
:1038B00090838F5F80935A0790915A0780915B079E
:1038C00082C080915A079091BB00E82FF0E0E65C3F
:1038D000F84F90838F5F80935A0780913407882335
:1038E00041F085ED8093BC008091BC0084FDFCCF4D
:1038F0007FC081E08093350784EA6EC085ED8093B8
:10390000BC008091BC0084FDFCCF72C083E080933A
:10391000320710929E0759C080919E07803208F0AE
:1039200056C080919E079091BB00E82FF0E0E258CE
:10393000F84F90838F5F80939E0747C080919E07CA
:10394000803230F4E0919E07F0E0E258F84F1082A8
:1039500085ED8093BC008091BC0084FDFCCF10926B
:10396000320760919E07E0913807F09139078EE7A2
:1039700097E070E0099510929E072DC084E0809337
:10398000320710927C0710927D07E0913607F09184
:103990003707099580917D07882329F481E080937A
:1039A0007D0710925C0790917C07E92FF0E0E45AC4
:1039B000F84F80818093BB009F5F90937C0790912C
:1039C0007C0780917D07981710F485EC01C085E88D
:1039D0008093BC000FC085EC8093BC0009C010929E
:1039E0009F0785ED8093BC008091BC0084FDFCCFD7
:1039F00010923207FF91EF91BF91AF919F918F91FC
:103A00007F916F915F914F913F912F910F900FBEDA
:103A10000F901F9018951092320781E08093340721
:103A20001092350782E161E00E94EB0B83E161E0D7
:103A30000E94EB0BE9EBF0E080818E7F8083808138
:103A40008D7F808388E48093B80085E48093BC00F8
:103A50000895EF92FF920F9380EA97E061E140E1D1
:103A60002FE00EE052E1E52E0E94261888EB97E049
:103A700066E04FE020E107E03CE2E32E31E0F32E88
:103A80000E9437180F91FF90EF900895AF92BF9268
:103A9000CF92DF92EF92FF920F931F93DF93CF931A
:103AA000CDB7DEB72C970FB6F894DEBF0FBECDBFF3
:103AB0008E010F5F1F4FC8010E94311888EB97E0FD
:103AC0000E9449182F83388749875A876B877C87DC
:103AD000D801FE01379686E001900D928150E1F702
:103AE00080E161E00E947F0B8FE061E00E947F0B2C
:103AF0008091C0079091C107181619062CF4019700
:103B00009093C1078093C0078D819E810297865E46
:103B1000934008F0CCC0E980FA800027F7FC0095BC
:103B2000102F80EA97E00E94DB0E00D000D05C01ED
:103B3000CC24B7FCC094DC2CEDB7FEB71182128206
:103B400013821482C801B70126E930E040E050E05A
:103B5000F8E9EF2EF3E0FF2E012D112D0E942C0A23
:103B60007A836983EB80FC800027F7FC0095102F97
:103B70000F900F900F900F9080EA97E00E94DF0E59
:103B800000D000D05C01CC24B7FCC094DC2CEDB795
:103B9000FEB71182128213821482C801B70128E78E
:103BA00030E040E050E0ECEAEE2EE3E0FE2E012DA6
:103BB000112D0E942C0A0F900F900F900F90809162
:103BC000C0079091C107892B61F481E090E0909348
:103BD000CB078093CA0780E991E09093C107809357
:103BE000C0072AE431E089819A81281B390B2634E9
:103BF0003105ACF4643671051CF48DE090E053C0DF
:103C0000623971051CF481E090E04DC0633C7105A0
:103C10001CF482E090E047C083E090E044C0263A84
:103C20003105ACF4643671051CF48EE090E03BC0C5
:103C3000623971051CF484E090E035C0633C710585
:103C40001CF485E090E02FC086E090E02CC0203F7F
:103C50003105ACF4643671051CF48FE090E023C0AC
:103C6000623971051CF487E090E01DC0633C71056A
:103C70001CF488E090E017C089E090E014C064363E
:103C800071051CF480E190E00EC0623971051CF4EE
:103C90008BE090E008C0633C71051CF48AE090E082
:103CA00002C08CE090E09093C9078093C8072C96DF
:103CB0000FB6F894DEBF0FBECDBFCF91DF911F913D
:103CC0000F91FF90EF90DF90CF90BF90AF9008954D
:103CD000CF92DF92EF92FF920F931F93B0EACB2E19
:103CE000B7E0DB2EC60160E070E00E941C15C60143
:103CF00060E070E04CE350E024E031E00CE310E0E1
:103D0000E12CA8EFFA2E0E94660CC60160E070E07C
:103D100048E750E020E431E008E710E00E94660C3C
:103D2000C60160E070E044EB50E024E031E004EBD9
:103D300010E00E94660CC60164E071E040E050E0D3
:103D400024E031E000EF10E00E94660CC6016AE05A
:103D500070E04FE050E00E94AA0EC60160EE7FEFD7
:103D60000E94B60EC60164E00E94B00EC6016AE170
:103D700073E00E942B09C6016AE070E04BE450E05A
:103D80000E94AA0EC60160E273E00E942B09C601E0
:103D90006AE070E047E850E00E94AA0EC6016AE2BD
:103DA00073E00E942B09C6016AE070E043EC50E02A
:103DB0000E94AA0EC60164E373E00E942B09C601AB
:103DC00062E271E049E150E022E231E00FE510E00B
:103DD0000E94660CC60162E271E049E150E02BE30B
:103DE00031E002E310E00E94660CC60162E271E07D
:103DF00049E150E029E031E00E94660CC60162E230
:103E000071E041E950E022E231E007ED10E00E946C
:103E1000660CC60162E271E047ED50E02BE331E051
:103E20000EEB10E00E94660CC60162E271E047ED05
:103E300050E029E031E00E94660CC60160E070E0CD
:103E400040E050E00E94AA0E1F910F91FF90EF906A
:103E5000DF90CF900895CF92DF92EF92FF920F9371
:103E60001F93F0EACF2EF7E0DF2EC60160E070E08E
:103E70000E941C15C60160E070E04CE350E024E0B5
:103E800031E00CE310E0E12CE8EFFE2E0E94660C1E
:103E9000C60160E070E048E750E020E431E008E768
:103EA00010E00E94660CC60160E070E044EB50E058
:103EB00024E031E004EB10E00E94660CC60164E0EF
:103EC00071E040E050E024E031E000EF10E00E94BB
:103ED000660CC6016AE070E04FE050E00E94AA0E56
:103EE000C60160EE7FEF0E94B60EC60164E00E943C
:103EF000B00EC6016AE173E00E942B09C6016AE0B8
:103F000070E04BE450E00E94AA0EC60160E273E04C
:103F10000E942B09C6016AE070E047E850E00E9469
:103F2000AA0EC6016AE273E00E942B09C6016AE08C
:103F300070E043EC50E00E94AA0EC60164E373E017
:103F40000E942B09C60162E271E049E150E022E2E1
:103F500031E00FE510E00E94660CC60162E271E0FC
:103F600049E150E02BE331E002E310E00E94660CEF
:103F7000C60162E271E049E150E029E031E00E94CF
:103F8000660CC60162E271E041E950E022E231E0F4
:103F900007ED10E00E94660CC60162E271E047ED99
:103FA00050E02BE331E00EEB10E00E94660CC601FE
:103FB00062E271E047ED50E029E031E00E94660CDA
:103FC000C60160E070E040E050E00E94AA0E1F9140
:103FD0000F91FF90EF90DF90CF900895CF92DF92F6
:103FE000EF92FF920F931F93B0EACB2EB7E0DB2E38
:103FF000C60160E070E00E941C15C60160E070E040
:104000004EE150E020E431E00EE110E0E12CA8EFB9
:10401000FA2E0E94660CC60160E070E04CE350E0AE
:1040200020E431E00CE310E00E94660CC60160E081
:1040300070E048E750E020E431E008E710E00E943B
:10404000660CC60160E070E044EB50E020E431E033
:1040500004EB10E00E94660CC6016FE070E047E0E0
:1040600050E00E94AA0EC60160EE7FEF0E94B60EDD
:10407000C60162E00E94B00EC6016EE373E00E94CA
:104080002B09C6016FE070E045E250E00E94AA0EE5
:10409000C60162E00E94B00EC60166E573E00E94B0
:1040A0002B09C6016FE070E04BE450E00E94AA0EBD
:1040B000C60164E00E94B00EC6016DE673E00E9486
:1040C0002B09C6016FE070E047E850E00E94AA0E9D
:1040D000C6016AE773E00E942B09C6016FE070E039
:1040E00043EC50E00E94AA0EC6016FE773E00E9405
:1040F0002B091F910F91FF90EF90DF90CF900895C3
:104100000F931F93BC0100EA17E0C8010E942B091E
:104110004091C4075091C5074C5E5F4F5093C5074F
:104120004093C4076091C2077091C307C8010E9401
:10413000AA0E1F910F910895CF92DF92EF92FF92F6
:104140000F931F93F0EACF2EF7E0DF2EC6016FE04A
:1041500070E047E050E00E94AA0EC60160EE7FEFDB
:104160000E94B60EC60162E00E94B00EC60160E079
:1041700070E00E941C15C6016EE373E00E942B09DB
:104180008FE090E09093C3078093C20785E290E0B0
:104190009093C5078093C407C60160E070E04EE1CC
:1041A00050E020E431E00EE110E0E12CE8EFFE2EDB
:1041B0000E94660C6091C2077091C3074091C407CA
:1041C0005091C507C6010E94AA0EC60160EE7FEF9E
:1041D0000E94B60EC60162E00E94B00EC60167E8FA
:1041E00073E00E942B094091C4075091C5074C5EB3
:1041F0005F4F5093C5074093C4076091C207709109
:10420000C307C6010E94AA0E1F910F91FF90EF9065
:10421000DF90CF900895CF92DF92EF92FF920F93AD
:104220001F93B0EACB2EB7E0DB2EC60160E070E052
:104230000E941C15C60160E070E04CE350E020E4F1
:1042400031E00CE310E0E12CA8EFFA2E0E94660C9E
:10425000C6016CE870E048E750E020E431E008E790
:1042600010E00E94660CC60160E070E044EB50E094
:1042700020E431E004EB10E00E94660CC6016CE81B
:1042800070E040E050E02CE830E000EF10E00E94E9
:10429000660CC60168EC70E040E050E028EC30E0CD
:1042A0000E94660CC60164E071E040E050E024E04A
:1042B00031E00E94660CC6016AE070E04FE050E019
:1042C0000E94AA0EC60160EE7FEF0E94B60EC601E4
:1042D00064E00E94B00EC6016AE173E00E942B09FF
:1042E000C60160EA70E04FE050E00E94AA0EC601ED
:1042F00063E973E00E942B09C6016EED70E04FE0A8
:1043000050E00E94AA0EC60165E973E00E942B09E5
:10431000C6016AE171E04FE050E00E94AA0EC601BA
:1043200067E973E00E942B09C60160EA70E04BE484
:1043300050E00E94AA0EC60169E973E00E942B09B1
:10434000C6016EED70E04BE450E00E94AA0EC6017B
:104350006BE973E00E942B09C6016AE171E04BE44E
:1043600050E00E94AA0EC6016DE973E00E942B097D
:10437000C60160EA70E047E850E00E94AA0EC6015C
:104380006FE973E00E942B09C6016EED70E047E80B
:1043900050E00E94AA0EC60161EA73E00E942B0958
:1043A000C6016AE171E047E850E00E94AA0EC6012A
:1043B00063EA73E00E942B09C6016EED70E043ECE6
:1043C00050E00E94AA0EC60165EA73E00E942B0924
:1043D000C6016AE070E043EC50E00E94AA0EC601FC
:1043E00067EA73E00E942B09C60163E00E94B00EE9
:1043F000C6016AE071E048EC50E00E94AA0EC601D6
:104400006BEA73E00E942B09C60162E970E048EC98
:1044100050E00E94AA0EC6016FEA73E00E942B09C9
:10442000C60160E070E040E050E00E94AA0EC601C4
:104430006AE070E04EE650E00E94AA0EC60162E01B
:104440000E94B00E4091CC075091CD076091CE07ED
:104450007091CF07C6012AE030E00E94C9081F9181
:104460000F91FF90EF90DF90CF9008950E940B2165
:1044700008950F931F9300EA17E0C8010E944617A2
:10448000C8010E94B916BC01C8010E947017C8017A
:1044900061E00E94F8161F910F910895CF93DF936A
:1044A000EC0104C08AE696E00E94CE07FE01219648
:1044B00064916623B9F7DF91CF9108950E944E224F
:1044C0008AE696E00E94D60708958AE696E040E0E4
:1044D00052EC61E070E00E941D060E94392280EEDD
:1044E00096E00E945E220E94DA270895EF92FF92E2
:1044F0000F931F93DF93CF93CDB7DEB7A6970FB679
:10450000F894DEBF0FBECDBF0E94461D8091C60746
:104510009091C7078230910509F47BC083309105E3
:1045200034F4009781F0019709F0ADC115C08430D3
:10453000910509F46AC1843091050CF42DC14597A9
:1045400009F0A1C1E0C00E94EE1F85E190E09093C8
:10455000C7078093C60797C18091CA079091CB0780
:10456000892B09F490C18FEB97E00E945E22809125
:10457000C8079091C9078E30910549F084309105A4
:1045800031F08530910519F08630910589F482E08B
:1045900090E09093C7078093C6071092CC071092C3
:1045A000CD071092CE071092CF070E940B2167C152
:1045B0008F30910549F08730910531F088309105B1
:1045C00019F08930910559F483E090E09093C70782
:1045D0008093C6071092D1071092D00739C180315D
:1045E000910549F08B30910531F08A30910519F031
:1045F0000C9709F044C184E090E09093C707809342
:10460000C6071092D1071092D00780E00E94681E62
:1046100036C18091CA079091CB07892B09F433C129
:104620008BEA97E00E945E228091C8079091C907AB
:104630008D30910509F41FC18B30910590F50A97D3
:1046400021F41092C9071092C8076091CC077091AD
:10465000CD078091CE079091CF0760322CEA720788
:104660002CEC82072CE092070CF04AC0E090C807BF
:10467000F090C9070027F7FC0095102F2AE030E0E2
:1046800040E050E00E941F2AE60EF71E081F191F87
:10469000E092CC07F092CD070093CE071093CF079E
:1046A0002FC08031910539F485E190E09093C707E0
:1046B0008093C607E4C08B30910549F41092CC0773
:1046C0001092CD071092CE071092CF0719C00C9709
:1046D00009F0D5C06091CC077091CD078091CE07CD
:1046E0009091CF072AE030E040E050E00E94732A2A
:1046F0002093CC073093CD074093CE075093CF073C
:104700000E943622BCC085E997E00E945E2282E3C7
:1047100090E0A0E0B0E08093CC079093CD07A09309
:10472000CE07B093CF0789E794E09093710580930B
:1047300070050E949C2082E894E00E94802080E71F
:1047400097E00E945E226091CC077091CD07409166
:10475000700550917105CE0101960E94062689814F
:104760009A818F5F9F4F49F08CE994E00E948020EE
:104770008EE497E00E945E2208C08EE297E00E94DD
:104780005E2286EA94E00E9480200E94461D1092DC
:10479000C7071092C60777C08091CA079091CB07D0
:1047A000892B09F470C089E197E00E945E22809114
:1047B000C8079091C9078D30910509F45CC081301C
:1047C000910509F458C08230910509F454C0833032
:1047D000910519F08630910531F48091D0079091C0
:1047E000D10701960BC08930910519F08C309105E5
:1047F00089F58091D0079091D10701979093D107C7
:104800008093D0070E942B1F3AC08091CA079091D5
:10481000CB07892BC1F184E097E00E945E22809152
:10482000C8079091C9078D30910529F18130910514
:1048300011F182309105F9F08330910549F086300D
:10484000910531F08930910519F08C30910511F402
:1048500080E0D8CF8E30910571F08430910559F009
:104860008530910541F08F30910529F08730910511
:1048700011F0089721F41092C7071092C607109202
:10488000CB071092CA07A6960FB6F894DEBF0FBEEC
:10489000CDBFCF91DF911F910F91FF90EF900895C1
:1048A0000E947622089582ED97E062E043E00E9444
:1048B0002F1208956F927F928F929F92AF92BF9224
:1048C000CF92DF92EF92FF920F931F93DF93CF93DC
:1048D000CDB7DEB7A6970FB6F894DEBF0FBECDBF3B
:1048E0008C017B016A018DB69EB62DB73EB72A506A
:1048F00030400FB6F8943EBF0FBE2DBFADB7BEB768
:10490000119637E1A32EB12CAC0EBD1EEDB7FEB74C
:10491000B282A1828BEB94E013969C938E931297B4
:10492000F801EE0FFF1FEE0FFF1FEC58FA4F8081CA
:10493000918115969C938E93149717967C936E9302
:10494000169719965C934E9318970E94FB2A2DB7E1
:104950003EB7265F3F4F0FB6F8943EBF0FBE2DBF48
:1049600088E69AE00E945E2281E59AE00E944E224B
:104970008AE696E0B8014AE050E00E94090986E420
:104980009AE00E944E228AE696E0B7010E942B0927
:104990008BE39AE00E944E228AE696E0B6014AE056
:1049A00050E00E94090989E39AE00E944E2297E0B4
:1049B000E92EF12CEC0EFD1E82ED97E0B50140E1F1
:1049C000970100E110E00E94CC10882309F4B5C0E3
:1049D0007DB66EB6F70101900020E9F7EE19FF09E8
:1049E00033978DB79EB78E1B9F0B0FB6F8949EBF63
:1049F0000FBE8DBF0196F70101900020E9F7EE1977
:104A0000FF0933972DB73EB72E1B3F0B0FB6F89417
:104A10003EBF0FBE2DBFCDB6DEB60894C11CD11C63
:104A2000F70101900020E9F7EE19FF0933972E1BDB
:104A30003F0B0FB6F8943EBF0FBE2DBFADB6BEB64E
:104A40000894A11CB11CA0E0B0E060E070E020E0A0
:104A500030E0870131C0F801E60FF71F4081413295
:104A6000B9F42115310519F4A80FB91F0BC0213075
:104A7000310519F4AC0DBD1D05C02230310519F406
:104A8000AA0DBB1D1C922F5F3F4FA0E0B0E012C0EB
:104A90002115310511F4FC0109C02130310511F453
:104AA000F60104C02230310529F4F501EA0FFB1F9D
:104AB000408311966F5F7F4FF80101900020E9F766
:104AC0003197E01BF10B6E177F0728F20E94A82A8E
:104AD0008C01C5010E94A82A7C0182E09AE00E9414
:104AE0005E228CEE99E00E944E228AE696E0B801A2
:104AF0004AE050E00E94090982EE99E00E944E22AD
:104B00008AE696E0B6010E942B0988ED99E00E94A2
:104B10004E228AE696E0B7014AE050E00E94090979
:104B200086ED99E00E944E22872D962D9C010FB6AE
:104B3000F8943EBF0FBE2DBF0CC089EBC82E84E099
:104B4000D82E86E999E00E945E22EE24FF2401E13E
:104B500010E0FE82ED82DC82CB821A830983202F53
:104B60003A814C2D5C816E2D7E8180E090E00FB605
:104B7000F8949EBE0FBE8DBEA6960FB6F894DEBF0B
:104B80000FBECDBFCF91DF911F910F91FF90EF909E
:104B9000DF90CF90BF90AF909F908F907F906F905D
:104BA0000895DF93CF93CDB7DEB72C970FB6F89467
:104BB000DEBF0FBECDBF8DE499E00E945E2281E092
:104BC00090E069EB74E040E050E00E945A242F83AB
:104BD000388749875A876B877C87DE011196FE01EB
:104BE000379686E001900D928150E1F720E08981AF
:104BF0009A81019709F421E0822F2C960FB6F89440
:104C0000DEBF0FBECDBFCF91DF9108952F923F92AF
:104C10004F925F926F927F928F929F92AF92BF92CC
:104C2000CF92DF92EF92FF920F931F93DF93CF9378
:104C3000CDB7DEB72E970FB6F894DEBF0FBECDBF4F
:104C40007C012B015E874D878FEF9FEFF7019183EA
:104C5000808393838283958384838EE099E00E948E
:104C60005E22DD24CC24C39400E010E0AA24BB24FF
:104C70003E010894611C711C57E0852E912C8C0E0E
:104C80009D1E46E0242E312C2E0C3F1C55C108944D
:104C9000A11CB11C82ED97E00E942810882309F422
:104CA00036C10E94D125882309F439C189EC98E0E6
:104CB0000E944E228AE696E0B2014AE050E00E944D
:104CC000090981E998E00E944E2289E090E069EBB1
:104CD00074E0A2010E945A242F83388749875A879B
:104CE0006B877C87D301F40186E001900D9281509F
:104CF000E1F789819A818230910559F083309105DD
:104D000024F48F5F9F4FC1F54BC18D30910529F57C
:104D100047C18AE090E06D857E8540E050E00E94CA
:104D20005A242F83388749875A876B877C87D3011A
:104D3000F40186E001900D928150E1F789819A811A
:104D40008330910581F08430910524F48F5F9F4F6B
:104D500099F40CC08E30910519F0419769F409C09F
:104D600006E010E053C000E010E050C005E010E0A5
:104D70004DC003E010E04AC002E010E047C0CC2084
:104D800021F084EC94E00E9480208BE090E069EBBD
:104D900074E040E050E00E945A242F83388749870E
:104DA0005A876B877C87D301F40186E001900D92CE
:104DB0008150E1F789819A818530910581F08630B3
:104DC00091053CF4EFEF8F3F9E0749F00497C9F43B
:104DD0000BC08F309105C9F0419799F40DC0DD24C7
:104DE000D39407E010E011C08D819E81F701938379
:104DF0008283DD24D39409C0DD24D39403E010E042
:104E000004C0DD24D39402E010E0CC240115110588
:104E100009F0C9C0DD2009F4B2CF89ED94E00E9409
:104E200080208CE090E069EB74E040E050E00E946C
:104E30005A242F83388749875A876B877C87D30109
:104E4000F40186E001900D928150E1F789819A8109
:104E50008730910509F4ABC08830910544F4FFEF29
:104E60008F3F9F0709F4A3C0069749F40BC0803118
:104E70009105B9F2419719F403E010E094C002E003
:104E800010E091C08BEE94E00E9480204D815E8105
:104E90008DE090E069EB74E00E945A242F833887FC
:104EA00049875A876B877C87D301F40186E001909C
:104EB0000D928150E1F789819A818A30910581F0C4
:104EC0008B3091053CF42FEF8F3F9207E9F0099763
:104ED000C1F422C08B309105C9F2419791F40EC004
:104EE0008D819E81892B81F06B817C81C10140E2A3
:104EF00050E00E94C62A01E010E00EC003E010E07E
:104F00000BC002E010E008C00AE010E005C085E434
:104F100098E00E945E2203C0DD24D394CC2483E079
:104F2000A816B10419F000E010E006C00115110543
:104F300019F4F70111821082F70180819181892B88
:104F400029F0F4E0AF16B1040CF4A1CE012B51F01E
:104F500085E098E00E944E228AE696E069EB74E0D4
:104F60000E942B0983ED97E00E945E22C7012E96D6
:104F70000FB6F894DEBF0FBECDBFCF91DF911F916A
:104F80000F91FF90EF90DF90CF90BF90AF909F90E8
:104F90008F907F906F905F904F903F902F900895EB
:104FA00004E010E033CFDD24CC24C394B8CF08E074
:104FB00010E0F9CFEF92FF920F931F938DE99AE0E3
:104FC0000E945E2282ED97E00E94101282ED97E02F
:104FD0000E94BA117B018C01611571058105910553
:104FE00039F48AE696E060E075E00E942B09FFCF75
:104FF0008AE696E069E175E00E942809412F55276D
:10500000662777278AE696E020E130E00E9485084F
:105010008AE696E069E275E00E942809402F50E098
:1050200060E070E08AE696E02AE030E00E947608D0
:105030008AE696E06EE20E94CE074F2D50E060E0D7
:1050400070E08AE696E02AE030E00E94850882ED72
:1050500097E00E9491111F910F91FF90EF9008959A
:105060005058BB27AA270ED04DC13ED130F043D1B6
:1050700020F031F49F3F11F41EF433C10EF4E0959B
:10508000E7FB29C1E92F4FD180F3BA1762077307F5
:105090008407950718F071F49EF567C10EF4E0954A
:1050A0000B2EBA2FA02D0B01B90190010C01CA01E2
:1050B000A0011124FF27591B99F0593F50F4503E8D
:1050C00068F11A16F040A22F232F342F4427585F7F
:1050D000F3CF469537952795A795F0405395C9F797
:1050E0007EF41F16BA0B620B730B840BBAF091504F
:1050F000A1F0FF0FBB1F661F771F881FC2F70EC0EE
:10510000BA0F621F731F841F48F4879577956795C0
:10511000B795F7959E3F08F0B3CF9395880F08F0A9
:105120009927EE0F9795879508950CD0EBC0E3D0A3
:1051300040F0DAD030F021F45F3F19F0CCC05111CB
:1051400015C1CFC0F0D098F39923C9F35523B1F31B
:10515000951B550BBB27AA2762177307840738F0E6
:105160009F5F5F4F220F331F441FAA1FA9F333D045
:105170000E2E3AF0E0E830D091505040E695001CF9
:10518000CAF729D0FE2F27D0660F771F881FBB1FB5
:10519000261737074807AB07B0E809F0BB0B802D8F
:1051A000BF01FF2793585F4F2AF09E3F510568F0DB
:1051B00092C0DCC05F3FECF3983EDCF386957795B8
:1051C0006795B795F7959F5FC9F7880F911D9695DD
:1051D000879597F90895E1E0660F771F881FBB1F39
:1051E000621773078407BA0720F0621B730B840BE6
:1051F000BA0BEE1F88F7E095089504D06894B111BA
:10520000B5C0089598D088F09F5790F0B92F99278E
:10521000B751A0F0D1F0660F771F881F991F1AF0C1
:10522000BA95C9F712C0B13081F09FD0B1E00895AE
:105230009CC0672F782F8827B85F39F0B93FCCF32F
:10524000869577956795B395D9F73EF490958095B7
:10525000709561957F4F8F4F9F4F0895E89409C0D7
:1052600097FB3EF490958095709561957F4F8F4F99
:105270009F4F9923A9F0F92F96E9BB279395F695AF
:10528000879577956795B795F111F8CFFAF4BB0F2D
:1052900011F460FF1BC06F5F7F4F8F4F9F4F16C091
:1052A000882311F096E911C0772321F09EE8872F1B
:1052B000762F05C0662371F096E8862F70E060E0D7
:1052C0002AF09A95660F771F881FDAF7880F969550
:1052D000879597F9089597F99F6780E870E060E0F7
:1052E00008959FEF80EC089500240A94161617067F
:1052F00018060906089500240A94121613061406C7
:1053000005060895092E0394000C11F4882352F029
:10531000BB0F40F4BF2B11F460FF04C06F5F7F4FE1
:105320008F4F9F4F089557FD9058440F551F59F0C8
:105330005F3F71F04795880F97FB991F61F09F3F82
:1053400079F087950895121613061406551FF2CFAB
:105350004695F1DF08C0161617061806991FF1CFFB
:1053600086957105610508940895E894BB27662722
:105370007727CB0197F908950BD0C4CFB5DF28F07C
:10538000BADF18F0952309F0A6CFABCF1124EECFEA
:10539000CADFA0F3959FD1F3950F50E0551F629F90
:1053A000F001729FBB27F00DB11D639FAA27F00D7E
:1053B000B11DAA1F649F6627B00DA11D661F829FA5
:1053C0002227B00DA11D621F739FB00DA11D621F8A
:1053D000839FA00D611D221F749F3327A00D611DA7
:1053E000231F849F600D211D822F762F6A2F112489
:1053F0009F5750408AF0E1F088234AF0EE0FFF1FDC
:10540000BB1F661F771F881F91505040A9F79E3F12
:10541000510570F060CFAACF5F3FECF3983EDCF30C
:10542000869577956795B795F795E7959F5FC1F74F
:10543000FE2B880F911D9695879597F90895629F89
:10544000D001739FF001829FE00DF11D649FE00D7C
:10545000F11D929FF00D839FF00D749FF00D659FDD
:10546000F00D9927729FB00DE11DF91F639FB00DDC
:10547000E11DF91FBD01CF011124089597FB092EED
:1054800007260AD077FD04D049D006D000201AF4B0
:10549000709561957F4F0895F6F7909581959F4F90
:1054A0000895A1E21A2EAA1BBB1BFD010DC0AA1F65
:1054B000BB1FEE1FFF1FA217B307E407F50720F07D
:1054C000A21BB30BE40BF50B661F771F881F991FF8
:1054D0001A9469F760957095809590959B01AC0141
:1054E000BD01CF01089597FB092E05260ED057FD6B
:1054F00004D0D7DF0AD0001C38F450954095309581
:1055000021953F4F4F4F5F4F0895F6F79095809547
:10551000709561957F4F8F4F9F4F0895AA1BBB1BBE
:1055200051E107C0AA1FBB1FA617B70710F0A61BA3
:10553000B70B881F991F5A95A9F780959095BC01C4
:10554000CD010895EE0FFF1F0590F491E02D099411
:10555000FC0188279927E89421912032E9F329302A
:1055600010F02E30C8F32B3241F02D3239F468940C
:1055700004C00E94F32A820F911D219120532A30EA
:10558000C0F31EF4909581959F4F0895DC01FB01B7
:105590004150504070F00D900020D1F7A15004C050
:1055A00001900D92002061F041505040C8F71C92CC
:1055B000BF0101900020E9F7E61BF70BAE0FBF1FFC
:1055C0000894A80BB90BCD010895FB01DC014150F3
:1055D000504030F08D910190801919F40020B9F7F6
:1055E000881B990B08957AE0979F902D879F802DB7
:1055F000910D11240895AEE0B0E0E1E0FBE20C94DF
:10560000AA2D0D891E8986E08C831A8309838FEF6A
:105610009FE79E838D839E01275E3F4FCE010196BB
:105620006F89788DA9010E941F2B2F813885020F69
:10563000131FF80110822E96E4E00C94C62DABE007
:10564000B0E0E5E2FBE20C949C2D3C012B015A01F9
:10565000FC0117821682838181FD03C06FEF7FEF0B
:10566000C6C19AE0892E1E010894211C311CF30149
:105670002381F20123FD859123FF81912F0188234E
:1056800009F4B2C1853239F423FD859123FF81915C
:105690002F01853229F490E0B3010E94122DE7CF4B
:1056A000982FFF24EE249924FFE1FF15D0F09B32C0
:1056B00069F09C3228F4903259F0933291F40EC084
:1056C0009D3249F0903369F441E024C052E0F52A5C
:1056D00084E0F82A28C098E0F92A25C0E0E1FE2AF3
:1056E00022C0F7FC29C0892F80538A3070F4F6FE5F
:1056F00005C0989C902C1124980E15C0E89CE02CB5
:105700001124E80EF0E2FF2A0EC09E3229F4F6FCC6
:105710006BC140E4F42A07C09C3619F450E8F52A1E
:1057200002C0983649F4F20123FD959123FF91912F
:105730002F01992309F0B8CF892F8554833018F0B1
:105740008052833038F444E050E0A40EB51E5FE38D
:1057500059830FC0933631F0933779F0933509F0C0
:1057600056C020C0F5018081898342E050E0A40E3C
:10577000B51E610101E010E012C0F501C080D180CA
:10578000F6FC03C06FEF7FEF02C0692D70E042E0CE
:1057900050E0A40EB51EC6010E94072D8C015FE7E4
:1057A000F52214C0F501C080D180F6FC03C06FEF74
:1057B0007FEF02C0692D70E042E050E0A40EB51EFC
:1057C000C6010E94FC2C8C0150E8F52AF3FE07C0AC
:1057D0001AC080E290E0B3010E94122DEA948E2D4F
:1057E00090E008171907A8F30EC0F601F7FC8591A1
:1057F000F7FE81916F0190E0B3010E94122DE1103C
:10580000EA94015010400115110579F7EAC0943669
:1058100011F0993669F5F7FE08C0F5012081318154
:105820004281538184E090E00AC0F501808191813A
:105830009C01442737FD4095542F82E090E0A80E4C
:10584000B91E9FE6F92257FF09C050954095309543
:1058500021953F4F4F4F5F4FE0E8FE2ACA01B90143
:10586000A1012AE030E00E943E2DD82ED21840C07F
:10587000953729F41F2D1F7E2AE030E01DC01F2D13
:10588000197F9F3661F0903720F4983509F0ACC04D
:105890000FC0903739F0983709F0A6C004C028E04F
:1058A00030E00AC0106114FD146020E130E004C053
:1058B00014FD166020E132E017FF08C0F501608199
:1058C00071818281938144E050E008C0F5018081BC
:1058D0009181BC0180E090E042E050E0A40EB51E52
:1058E000A1010E943E2DD82ED2188FE7F82EF1226A
:1058F000F6FE0BC05EEFF522D91438F4F4FE07C0B3
:10590000F2FC05C08FEEF82202C01D2D01C0192D3A
:10591000F4FE0DC0FE01ED0DF11D8081803319F400
:1059200099EEF92208C01F5FF2FE05C003C08F2D5B
:10593000867809F01F5F0F2DF3FC14C0F0FE0FC036
:105940001E1510F09D2C0BC09D2C9E0C911A1E2D27
:1059500006C080E290E0B3010E94122D1F5F1E1569
:10596000C0F304C01E1510F4E11A01C0EE2404FFB8
:105970000FC080E390E0B3010E94122D02FF1DC012
:1059800001FD03C088E790E00EC088E590E00BC001
:10599000802F867891F001FF02C08BE201C080E287
:1059A000F7FC8DE290E0B3010E94122D06C080E367
:1059B00090E0B3010E94122D9A94D914C0F3DA94A6
:1059C000F101ED0DF11D808190E0B3010E94122DD7
:1059D000DD20A9F706C080E290E0B3010E94122DFD
:1059E000EA94EE20C1F743CEF30166817781CB01C3
:1059F0002B96E2E10C94B82DFC01059061507040AB
:105A00000110D8F7809590958E0F9F1F0895FC0187
:105A10006150704001900110D8F7809590958E0FDD
:105A20009F1F08950F931F93CF93DF938C01EB017A
:105A30008B8181FF1BC082FF0DC02E813F818C8135
:105A40009D812817390764F4E881F9810193F9836E
:105A5000E88306C0E885F985802F0995892B31F404
:105A60008E819F8101969F838E8302C00FEF1FEF6F
:105A7000C801DF91CF911F910F910895FA01AA27D4
:105A8000283051F1203181F1E8946F936E7F6E5F81
:105A90007F4F8F4F9F4FAF4FB1E03ED0B4E03CD02F
:105AA000670F781F891F9A1FA11D680F791F8A1F12
:105AB000911DA11D6A0F711D811D911DA11D20D079
:105AC00009F468943F912AE0269F11243019305D33
:105AD0003193DEF6CF010895462F4770405D419324
