:100000000C9429070C94930B0C94C00B0C9451077F
:100010000C9451070C9451070C9451070C94370B16
:100020000C9451070C9451070C9451070C945107F0
:100030000C9451070C9451070C9451070C945107E0
:100040000C94450C0C9451070C9454070C94A20783
:100050000C9451070C9451070C9451070C945107C0
:100060000C94112C0C94510702000000002400276E
:10007000002A0000000000250028002B00000000DE
:1000800000230026002900040404040404040402DC
:100090000202020202030303030303010204081025
:1000A00020408001020408102001020408102000F2
:1000B0000000070002010000030406000000000029
:1000C000000000008C00F0006400AF00016400F04C
:1000D00000B000F500027800F000F6002C01030AE1
:1000E00000540050007E000455009E0050007E0029
:1000F000059F00E80050007E00060A0054007F00C3
:10010000AC000755009E007F00AC00089F00E8008F
:100110007F00AC00090A005400AD00DA000A550067
:100120009E00AD00DA000B9F00E800AD00DA000C85
:100130000A005400DB0007010D55009E00DB00079C
:10014000010E9F00E800DB0007010F0A00540008C1
:100150000136011055009E0008013601119F00E88C
:100160000007013601121400DC00AD00D9001314A1
:1001700000DC00E5001101746F7563686564526509
:1001800067696F6E28293A4B65792027434F4E5493
:10019000494E554527205072657373656400746F2E
:1001A0007563686564526567696F6E28293A4B65A7
:1001B00079202743414E43454C2720507265737385
:1001C000656400746F7563686564526567696F6E16
:1001D00028293A4B6579202743414E2720507265E4
:1001E0007373656400746F756368656452656769ED
:1001F0006F6E28293A4B657920274F4B2720507284
:10020000657373656400746F7563686564526567D0
:10021000696F6E28293A4B65792027232720507271
:10022000657373656400746F7563686564526567B0
:10023000696F6E28293A4B65792027302720507244
:10024000657373656400746F756368656452656790
:10025000696F6E28293A4B657920272E2720507226
:10026000657373656400746F756368656452656770
:10027000696F6E28293A4B657920273927205072FB
:10028000657373656400746F756368656452656750
:10029000696F6E28293A4B657920273827205072DC
:1002A000657373656400746F756368656452656730
:1002B000696F6E28293A4B657920273727205072BD
:1002C000657373656400746F756368656452656710
:1002D000696F6E28293A4B6579202736272050729E
:1002E000657373656400746F7563686564526567F0
:1002F000696F6E28293A4B6579202735272050727F
:10030000657373656400746F7563686564526567CF
:10031000696F6E28293A4B6579202734272050725F
:10032000657373656400746F7563686564526567AF
:10033000696F6E28293A4B65792027332720507240
:10034000657373656400746F75636865645265678F
:10035000696F6E28293A4B65792027322720507221
:10036000657373656400746F75636865645265676F
:10037000696F6E28293A4B65792027312720507202
:10038000657373656400746F75636865645265674F
:10039000696F6E28293A2753616C65272053656C75
:1003A0006563746564002C2079203D2000746F75AE
:1003B00063686564526567696F6E28293A3A2078E8
:1003C000203D200067657453616C65414D6F756E0B
:1003D000743A3A2070757368696E6720536372656A
:1003E000656E004E464320506F696E74206F662024
:1003F00053616C65205061796D656E7420536F6C2C
:100400007574696F6E0A0070726F636573734D6106
:10041000696E3A20737461746520360070726F6380
:100420006573736D61696E3A3A20556E65787065D3
:1004300063746564206572726F722E0070726F63F0
:100440006573736D61696E3A3A207061796D656E9E
:1004500074207375636365737366756C21007072C5
:100460006F636573736D61696E3A3A2044657465B4
:100470006374696E67206D6F62696C652070686F68
:100480006E650070726F636573734D61696E3A3AA1
:1004900020737461746520330070726F63657373C9
:1004A0004D61696E3A207374617465203200707218
:1004B0006F636573734D61696E3A2073746174651F
:1004C000203100008903018B03028D03038F030495
:1004D0009103059303069503079703089903099B66
:1004E000030A9D030BA0030CA3030DA6036E666312
:1004F0005F706F735F7472616E73616374696F6E46
:100500005F68616E646C657228293A3A205265749E
:1005100075726E696E6720746F206D61696E006E12
:1005200066635F706F735F7472616E736163746929
:100530006F6E5F68616E646C657228293A3A205468
:1005400072616E73616374696F6E206661696C6558
:10055000642077697468206572726F72203A000AAD
:100560006E66635F706F735F7472616E73616374E4
:10057000696F6E5F68616E646C657228293A3A2013
:10058000556E61626C6520746F206C6973742074A1
:10059000686520504E35333220617320706173736B
:1005A00069766520746172676574006E66635F705A
:1005B0006F735F7472616E73616374696F6E5F688D
:1005C000616E646C657228293A3A2053656E6469DD
:1005D0006E67207061796D656E7420616D6F756EE8
:1005E000740A006E66635F706F735F7472616E731E
:1005F000616374696F6E5F68616E646C65722829EF
:100600003A3A20496E6974696174696E6720706155
:10061000796D656E74207472616E73616374696F55
:100620006E20666F722024000A6E66635F706F73BF
:100630005F7472616E73616374696F6E5F68616E1F
:10064000646C657228293A3A20456E746572696E49
:1006500067207472616E73616374696F6E206C6F72
:100660006F702E2E2E0A000A6E66635F706F735FC6
:100670006D6F62696C655F706565725F72656164FC
:100680007928293A3A2057616974696E6720666F44
:1006900072206D6F62696C652064657669636520A0
:1006A000746F2062652072656164792E2E2E0A00B7
:1006B0000A6E66635F706F735F73656E645F6D650E
:1006C00073736167655F746F5F7065657228293A3F
:1006D0003A206E66632E696E446174614578636882
:1006E000616E67652829206661696C6564210A006E
:1006F0000A00496E20446174613A2000496E20541A
:100700006578743A2000496E205472616E7361639B
:1007100074696F6E20436F64653A20000A6E6663E9
:100720005F706F735F73656E645F6D657373616730
:10073000655F746F5F7065657228293A3A204D6570
:1007400073736167652066726F6D206D6F62696C8F
:10075000652E00496E206275666665722063686169
:10076000723A2000496E2062756666657220627971
:100770007465733A20004F75742062756666657201
:1007800020636861723A20004F7574206275666656
:1007900065722062797465733A20000A004F75749F
:1007A00020446174613A20004F7574205465787458
:1007B0003A20004F7574205472616E7361637469DE
:1007C0006F6E20436F64653A20000A6E66635F7047
:1007D0006F735F73656E645F6D6573736167655F8B
:1007E000746F5F7065657228293A3A204D6573739E
:1007F00061676520746F206D6F62696C652E000AF9
:100800006E66635F706F735F636F6E666967757244
:10081000655F626F61726428293A3A20537461728D
:1008200074696E67204E46432E2E2E000000000095
:10083000003E5B4F5B3E3E6B4F6B3E1C3E7C3E1C66
:10084000183C7E3C181C577D571C1C5E7F5E1C00AC
:10085000183C1800FFE7C3E7FF0018241800FFE763
:10086000DBE7FF30483A060E2629792926407F0526
:100870000507407F05253F5A3CE73C5A7F3E1C1C3C
:1008800008081C1C3E7F14227F22145F5F005F5FFC
:1008900006097F017F006689956A606060606094E8
:1008A000A2FFA29408047E040810207E20100808ED
:1008B0002A1C08081C2A08081E101010100C1E0CF8
:1008C0001E0C30383E3830060E3E0E06000000008A
:1008D0000000005F00000007000700147F147F1471
:1008E000242A7F2A122313086462364956205000B6
:1008F00008070300001C2241000041221C002A1CA2
:100900007F1C2A08083E080800807030000808088C
:100910000808000060600020100804023E514945AC
:100920003E00427F400072494949462141494D33CA
:100930001814127F1027454545393C4A4949314131
:10094000211109073649494936464949291E0000FF
:100950001400000040340000000814224114141454
:100960001414004122140802015909063E415D5940
:100970004E7C1211127C7F494949363E4141412249
:100980007F4141413E7F494949417F090909013E73
:10099000414151737F0808087F00417F410020409A
:1009A000413F017F081422417F404040407F021CAC
:1009B000027F7F0408107F3E4141413E7F090909C3
:1009C000063E4151215E7F0919294626494949328F
:1009D00003017F01033F4040403F1F2040201F3F55
:1009E0004038403F631408146303047804036159DA
:1009F000494D43007F41414102040810200041411C
:100A0000417F0402010204404040404000030708C7
:100A10000020545478407F284444383844444428C3
:100A2000384444287F385454541800087E0902186A
:100A3000A4A49C787F0804047800447D40002040F2
:100A4000403D007F1028440000417F40007C047836
:100A500004787C080404783844444438FC1824247E
:100A60001818242418FC7C080404084854545424FE
:100A700004043F44243C4040207C1C2040201C3C7B
:100A80004030403C44281028444C9090907C446472
:100A9000544C440008364100000077000000413605
:100AA000080002010204023C2623263C1EA1A1618B
:100AB000123A4040207A38545455592155557941BD
:100AC0002154547841215554784020545579400C94
:100AD0001E52721239555555593954545459395575
:100AE0005454580000457C410002457D42000145B8
:100AF0007C40F0292429F0F0282528F07C54554525
:100B0000002054547C547C0A097F493249494932B7
:100B10003248484832324A4848303A4141217A3ACC
:100B200042402078009DA0A07D39444444393D4096
:100B300040403D3C24FF2424487E4943662B2FFC43
:100B40002F2BFF0929F620C0887E090320545479F1
:100B5000410000447D413048484A32384040227AC2
:100B6000007A0A0A727D0D19317D2629292F28263F
:100B70002929292630484D40203808080808080847
:100B80000808382F10C8ACBA2F102834FA00007BA0
:100B9000000008142A142222142A1408AA0055005E
:100BA000AAAA55AA55AA000000FF00101010FF00C5
:100BB000141414FF001010FF00FF1010F010F014B8
:100BC0001414FC001414F700FF0000FF00FF1414BD
:100BD000F404FC141417101F10101F101F14141409
:100BE0001F00101010F0000000001F101010101F48
:100BF00010101010F010000000FF10101010101056
:100C0000101010FF10000000FF140000FF00FF0094
:100C1000001F10170000FC04F4141417101714140C
:100C2000F404F40000FF00F714141414141414F75F
:100C300000F7141414171410101F101F141414F4B8
:100C4000141010F010F000001F101F0000001F14FF
:100C5000000000FC140000F010F01010FF10FF1452
:100C60001414FF141010101F00000000F010FFFFFC
:100C7000FFFFFFF0F0F0F0F0FFFFFF0000000000CA
:100C8000FFFF0F0F0F0F0F38444438447C2A2A3ED1
:100C9000147E02020606027E027E0263554941630B
:100CA0003844443C04407E201E2006027E02029905
:100CB000A5E7A5991C2A492A1C4C7201724C304A9E
:100CC0004D4D303048784830BC625A463D3E494927
:100CD00049007E0101017E2A2A2A2A2A44445F44CF
:100CE0004440514A444040444A51400000FF0103FF
:100CF000E080FF000008086B6B08361236243606C9
:100D00000F090F06000018180000001010003040F6
:100D1000FF0101001F01011E00191D1712003C3CBC
:100D20003C3C000000000000000100FF0032000118
:100D3000000001020000070300301004000000085A
:100D4000000202090000000A0000000C0000000D73
:100D50000000000F0000001000000011000700124A
:100D600000000013000000FF00C8001000901611E2
:100D7000002702FF00320012001A00FF00320013A9
:100D800000001829002A00FF003200300000003166
:100D90000000003200000035000602360008083767
:100DA00000070038000102390000003C0000003D4F
:100DB0000000002000000021000000500000005151
:100DC00000EF005200000053003F01600000A761E7
:100DD0000003006A000000900010009200000093E1
:100DE0000003009500001197000000980000000724
:100DF0000033012E89298F2B02E200E401E510E681
:100E000001E710E870F200EA00EB20EC3CEDC8E9E5
:100E100038F1011B1A1A022461255C183619011FCA
:100E200088FF051F80FF051F90FF051FD4FF0517D2
:100E30000536092838FF28283C0200030004000575
:100E4000EF060007000801093F000E090F0E2016EB
:100E5000AD2A11241FBECFEFD8E0DEBFCDBF14E016
:100E6000A0E0B1E0EAECF6E602C005900D92AE35E6
:100E7000B107D9F716E0AEE5B4E001C01D92AE357A
:100E8000B107E1F71EE0C2E5DEE004C02297FE01F3
:100E90000E943430CA34D107C9F70E94360C0C9432
:100EA00063330C94000008951F920F920FB60F92B7
:100EB00011242F933F934F938F939F93EF93FF931F
:100EC0008091C00082FD1DC04091C60020919E040B
:100ED00030919F042F5F3F4F2F7330708091A0049B
:100EE0009091A1042817390771F0E0919E04F091C8
:100EF0009F04E25AFB4F408330939F0420939E044B
:100F000002C08091C600FF91EF919F918F914F9108
:100F10003F912F910F900FBE0F901F901895E09169
:100F2000F204F091F304E05CFF4F819191912081F4
:100F30003181821B930B8F739070892B11F00E946B
:100F4000530708951F920F920FB60F9211242F93FB
:100F50003F938F939F93EF93FF932091E2043091FF
:100F6000E3048091E4049091E5042817390731F4F3
:100F70008091C1008F7D8093C10014C0E091E40492
:100F8000F091E504EE55FB4F20818091E4049091AF
:100F9000E50401968F7390709093E5048093E404C8
:100FA0002093C600FF91EF919F918F913F912F91D8
:100FB0000F900FBE0F901F901895AF92BF92DF92C7
:100FC000EF92FF920F931F93CF93DF93EC017A017F
:100FD0008B01DD24403081EE580780E0680780E017
:100FE000780711F0DD24D39491E0A92EB12CEC897F
:100FF000FD89DD2069F0C50108A002C0880F991F96
:101000000A94E2F7808360E079E08DE390E005C028
:10101000108260E874E88EE190E0A80197010E94D8
:10102000E12F21503040404050405695479537952C
:10103000279580E12030380720F0DD2011F0DD24F5
:10104000D6CFE889F9893083EA89FB89208319A200
:10105000EE89FF89408121E030E0C9010C8C02C09B
:10106000880F991F0A94E2F7482B4083EE89FF8985
:101070004081C9010D8C02C0880F991F0A94E2F7C4
:10108000482B4083EE89FF894081C9010E8C02C044
:10109000880F991F0A94E2F7482B4083EE89FF8955
:1010A00080810F8C02C0220F331F0A94E2F7209533
:1010B00028232083DF91CF911F910F91FF90EF9014
:1010C000DF90BF90AF900895DC011C96ED91FC91EC
:1010D0001D97E05CFF4F2191319180819181281B08
:1010E000390B2F733070C9010895DC011C96ED9106
:1010F000FC911D97E05CFF4F20813181E054F0406E
:10110000DF01AE5BBF4F8D919C9111972817390776
:1011100019F42FEF3FEF07C08D919C91E80FF91F55
:101120008081282F30E0C9010895DC011C96ED91E3
:10113000FC911D97E05CFF4F20813181E054F0402D
:10114000DF01AE5BBF4F8D919C9111972817390736
:1011500019F42FEF3FEF10C08D919C911197E80F7C
:10116000F91F20818D919C91119701968F7390703A
:1011700011969C938E9330E0C9010895DC019196FD
:101180008C919197882339F05496ED91FC91559765
:10119000808186FFF9CF91961C920895CF93DF93BB
:1011A000EC01EE85FF85E05CFF4F20813181E0544A
:1011B000F0402F5F3F4F2F733070DF01AE5BBF4FAA
:1011C0008D919C91119728173907D1F3E05CFF4F5F
:1011D00080819181E054F040E80FF91F6083EE8533
:1011E000FF85E05CFF4F31832083EE89FF892081FA
:1011F00081E090E00F8C02C0880F991F0A94E2F7FB
:10120000282B208381E089A3EC89FD89808180647B
:10121000808381E090E0DF91CF9108951092E904FE
:101220001092E80488EE93E0A0E0B0E08093EA0436
:101230009093EB04A093EC04B093ED0489E294E066
:101240009093E7048093E6048EE594E09093F30492
:101250008093F20482EA94E09093F5048093F4047E
:1012600085EC90E09093F7048093F60484EC90E092
:101270009093F9048093F80480EC90E09093FB0441
:101280008093FA0481EC90E09093FD048093FC0439
:1012900082EC90E09093FF048093FE0486EC90E053
:1012A000909301058093000584E08093020583E01C
:1012B0008093030587E08093040585E0809305050E
:1012C00081E0809306050895CF92DF92EF92FF921E
:1012D0000F931F93CF93DF937C016B018A01C0E0D2
:1012E000D0E00FC0D6016D916D01D701ED91FC9159
:1012F0000190F081E02DC7010995C80FD91F015059
:1013000010400115110571F7CE01DF91CF911F91AA
:101310000F91FF90EF90DF90CF900895DC01ED9159
:10132000FC910190F081E02D09950895EF92FF92D4
:101330000F931F938C01DC01ED91FC910190F081E2
:10134000E02D6DE009957C01D801ED91FC910190B3
:10135000F081E02DC8016AE009959C012E0D3F1D2A
:10136000C9011F910F91FF90EF900895CF93DF93E4
:10137000EC016115710519F420E030E00FC0DB01CC
:101380000D900020E9F71197A61BB70BE881F981B2
:101390000280F381E02DAD0109959C01C901DF9127
:1013A000CF9108954F925F927F928F929F92AF92CA
:1013B000BF92CF92DF92EF92FF920F931F93DF9332
:1013C000CF93CDB7DEB7A1970FB6F894DEBF0FBEAF
:1013D000CDBF2C01742ECB01223008F42AE019A2D3
:1013E00031E2C32ED12CCC0EDD1E822E9924AA24EC
:1013F000BB24672D752FA50194010E94E12F79016F
:101400008A01C801B701A50194010E94AF2F472DA1
:10141000461B0894C108D1084A3010F4405D01C051
:10142000495CF6014083E114F1040105110521F046
:101430007E2C5F2DC801DDCFC201B6010E94B60926
:10144000A1960FB6F894DEBF0FBECDBFCF91DF914E
:101450001F910F91FF90EF90DF90CF90BF90AF90D2
:101460009F908F907F905F904F900895DC012115A1
:10147000310541F4ED91FC910190F081E02D642F54
:10148000099508950E94D2090895EF92FF920F9353
:101490001F937C010E94360A8C01C7010E949609A5
:1014A0009C01200F311FC9011F910F91FF90EF90F8
:1014B0000895CF92DF92EF92FF920F931F936C01EA
:1014C000E62E9A01FF2400E010E0B801A7010E9477
:1014D000360A8C01C6010E949609080F191FC8011F
:1014E0001F910F91FF90EF90DF90CF900895CF92D2
:1014F000DF92EF92FF920F931F93CF93DF93EC0154
:101500006A017B012115310541F4E881F9810190DF
:10151000F081E02D642F09951FC02A303105D1F4E8
:1015200077FF17C0E881F9810190F081E02D6DE22D
:1015300009958C0144275527BA014C195D096E099C
:101540007F09CE012AE00E94D2099801280F391F95
:1015500004C02AE00E94D2099C01C901DF91CF9109
:101560001F910F91FF90EF90DF90CF900895EF9231
:10157000FF920F931F937B019A010027F7FC0095C0
:10158000102FB801A7010E94770A1F910F91FF90B9
:10159000EF900895CF92DF92EF92FF920F931F93F7
:1015A0006C017B019A010027F7FC0095102FB80110
:1015B000A7010E94770A8C01C6010E949609080FB4
:1015C000191FC8011F910F91FF90EF90DF90CF90EE
:1015D00008950E94B6090895EF92FF920F931F930A
:1015E0007C010E94B6098C01C7010E949609080F70
:1015F000191FC8011F910F91FF90EF90089581303E
:1016000041F0813018F08230D1F409C010926E00A0
:10161000089580916F008D7F80936F000895809171
:1016200070008D7F8093700081E08093B000809186
:10163000B100887F84608093B1001092B300089558
:101640001F93182F80911504811711F09FEF06C08A
:10165000E8E6F0E094918FEF80931504892F0E94C3
:10166000FF0A812F60E00E94AC0D1F9108951F9228
:101670000F920FB60F9211242F933F934F935F93C6
:101680006F937F938F939F93AF93BF93EF93FF934A
:101690008091080590910905A0910A05B0910B056C
:1016A0000097A105B10551F1E0910C05F0910D05F0
:1016B000808190910E058927808380910805909103
:1016C0000905A0910A05B0910B05181619061A060E
:1016D0001B06C4F48091080590910905A0910A05A4
:1016E000B0910B050197A109B1098093080590936A
:1016F0000905A0930A05B0930B0504C08091150459
:101700000E94200BFF91EF91BF91AF919F918F911C
:101710007F916F915F914F913F912F910F900FBEED
:101720000F901F9018951F920F920FB60F921124D1
:101730002F933F934F935F936F937F938F939F93D9
:10174000AF93BF93EF93FF9380910F059091100596
:10175000892B29F0E0910F05F09110050995FF9173
:10176000EF91BF91AF919F918F917F916F915F9119
:101770004F913F912F910F900FBE0F901F90189592
:101780001F920F920FB60F9211242F933F934F93F6
:101790005F936F937F938F939F93AF93BF93EF93D9
:1017A000FF938091110590911205892B29F0E0910A
:1017B0001105F09112050995FF91EF91BF91AF913D
:1017C0009F918F917F916F915F914F913F912F9159
:1017D0000F900FBE0F901F9018952F923F924F922F
:1017E0005F926F927F928F929F92AF92BF92CF92B1
:1017F000DF92EF92FF920F931F93DF93CF93CDB7BA
:10180000DEB73B014C0119012A016D897E898F8960
:10181000988D6A197B098C099D09621A730A840ADA
:10182000950AA40193010E94AF2FE218F30804095E
:101830001509A80197010E9403302A0D3B1D4C1D7C
:101840005D1DB901CA01CF91DF911F910F91FF90EA
:10185000EF90DF90CF90BF90AF909F908F907F9050
:101860006F905F904F903F902F900895CF93DF93AC
:101870000E94E30C0E944814CFE8D7E00E941D1696
:101880002097E1F30E948F07F9CF1F920F920FB6B6
:101890000F9211242F933F938F939F93AF93BF93F6
:1018A0008091170590911805A0911905B0911A051E
:1018B00030911B050196A11DB11D232F2D5F2D37E2
:1018C00020F02D570196A11DB11D20931B0580937B
:1018D000170590931805A0931905B0931A058091E8
:1018E000130590911405A0911505B0911605019668
:1018F000A11DB11D8093130590931405A0931505A8
:10190000B0931605BF91AF919F918F913F912F9109
:101910000F900FBE0F901F9018959FB7F8942091CD
:10192000130530911405409115055091160586B5A3
:10193000A89B06C08F3F21F02F5F3F4F4F4F5F4F57
:101940009FBF542F432F322F2227280F311D411DB7
:10195000511D82E0220F331F441F551F8A95D1F776
:10196000B901CA010895EF92FF920F931F93CF938D
:10197000DF937B018C010E948D0CEB010EC00E9455
:101980008D0C6C1B7D0B685E7340C8F30894E108F6
:10199000F10801091109C851DC4FE114F1040105F6
:1019A000110569F7DF91CF911F910F91FF90EF9093
:1019B0000895019739F0880F991F880F991F029792
:1019C0000197F1F70895789484B5826084BD84B559
:1019D000816084BD85B5826085BD85B5816085BD2A
:1019E000EEE6F0E0808181608083E1E8F0E0108243
:1019F000808182608083808181608083E0E8F0E084
:101A0000808181608083E1EBF0E08081846080836D
:101A1000E0EBF0E0808181608083EAE7F0E08081A4
:101A20008460808380818260808380818160808304
:101A30008081806880831092C1000895982F8E3035
:101A400008F09E509770809116048295880F880F39
:101A5000807C892B80937C0080917A0080648093C5
:101A60007A0080917A0086FDFCCF20917800409129
:101A70007900942F80E030E0282B392BC90108959C
:101A8000CF93DF93482F50E0CA0185569F4FFC014A
:101A9000349149575F4FFA018491882369F190E0AE
:101AA000880F991FFC01E759FF4FA591B491FC01E4
:101AB000ED58FF4FC591D491662351F42FB7F89498
:101AC0008C91932F909589238C93888189230BC0C7
:101AD000623061F42FB7F8948C91932F90958923FD
:101AE0008C938881832B88832FBF06C09FB7F8947F
:101AF0008C91832B8C939FBFDF91CF91089583307E
:101B000071F0843028F48130A1F0823021F514C0C6
:101B10008630B1F08730D1F08430E9F404C0809190
:101B200080008F7703C0809180008F7D809380003C
:101B3000089584B58F7702C084B58F7D84BD0895E4
:101B40008091B0008F778093B00008958091B000AD
:101B50008F7D8093B0000895FF920F931F93F62E10
:101B6000482F50E0CA0181559F4FFC012491CA01C2
:101B700085569F4FFC01149149575F4FFA0104911C
:101B80000023C9F0222319F0822F0E947F0DE02F3D
:101B9000F0E0EE0FFF1FED58FF4FA591B4919FB7F6
:101BA000F894FF2021F48C911095812302C08C9130
:101BB000812B8C939FBF1F910F91FF9008950F93DE
:101BC0001F93482F50E0CA0181559F4FFC0124917B
:101BD000CA0185569F4FFC01049149575F4FFA0196
:101BE0001491112319F420E030E015C0222319F0DC
:101BF000822F0E947F0D812F90E0880F991F8358BC
:101C00009F4FFC01A591B4918C9120E030E080239E
:101C100011F021E030E0C9011F910F910895EF927A
:101C2000FF920F938CE195E00E94BD2884E395E03C
:101C300066E04FE020E107E03CE2E32E31E0F32EE6
:101C40000E94CE280F91FF90EF9008955F926F92BF
:101C50007F928F929F92AF92BF92CF92DF92EF923C
:101C6000FF920F931F93DF93CF93CDB7DEB72C97DF
:101C70000FB6F894DEBF0FBECDBF982E8E010F5F5A
:101C80001F4FC8010E94C828502E812EA7E06A2E3F
:101C9000712C6C0E7D1E84E395E00E94E0282F835A
:101CA000388749875A876B877C87852D982DDC017B
:101CB000F30186E001900D928150E1F780E161E04F
:101CC0000E94400D8FE061E00E94400D8D819E8159
:101CD00002978E509742F8F688EC90E001C0019789
:101CE0000097E9F7E980FA800027F7FC0095102FAC
:101CF0008CE195E00E940A2000D000D05C01CC2449
:101D0000B7FCC094DC2CEDB7FEB7118212821382AF
:101D10001482C801B70126E930E040E050E0F8E95C
:101D2000EF2EF3E0FF2E012D112D0E94ED0B7A8393
:101D30006983EB80FC800027F7FC0095102F0F9043
:101D40000F900F900F908CE195E00E940E2000D034
:101D500000D05C01CC24B7FCC094DC2CEDB7FEB7FE
:101D60001182128213821482C801B70128E730E081
:101D700040E050E0ECEAEE2EE3E0FE2E012D112DC6
:101D80000E94ED0B7C836B830F900F900F900F9050
:101D90008DEA93E00E94311469817A8186EE94E0A5
:101DA0004AE050E00E94B70A86EA93E00E943114AC
:101DB0006B817C8186EE94E04AE050E00E94CA0A82
:101DC000F1E09F1609F122E0921609F437C199203B
:101DD00009F061CF89819A818C3891050CF45BCF31
:101DE000803F91050CF057CF8B819C818436910503
:101DF0000CF451CF8F3A91050CF04DCF86E893E06B
:101E00000E94411480E041C189819A818A30910504
:101E10000CF441CF8435910574F42B813C8120353D
:101E200031054CF02E37310534F486E693E00E94FC
:101E3000411483E02AC1853591052CF18E39910535
:101E400074F42B813C81203531054CF02E3731055F
:101E500034F486E493E00E94411484E016C18F3983
:101E600091058CF0883E910574F42B813C812035DE
:101E700031054CF02E37310534F486E293E00E94B0
:101E8000411485E002C18435910574F42B813C81B5
:101E90002F3731054CF02C3A310534F486E093E0CD
:101EA0000E94411486E0F1C0853591052CF18E39F0
:101EB000910574F42B813C812F3731054CF02C3A7D
:101EC000310534F486EE92E00E94411487E0DDC0D3
:101ED0008F3991058CF0883E910594F42B813C81DB
:101EE0002F3731056CF02C3A310554F486EC92E032
:101EF0000E94411488E0C9C08A3091050CF4CBCE11
:101F00008435910574F42B813C812D3A31054CF0D8
:101F10002A3D310534F486EA92E00E94411489E0BA
:101F2000B4C0853591052CF18E39910574F42B815F
:101F30003C812D3A31054CF02A3D310534F486E8D8
:101F400092E00E9441148AE0A0C08F3991058CF084
:101F5000883E910594F42B813C812D3A31056CF03B
:101F60002A3D310554F486E692E00E9441148BE04C
:101F70008CC08A3091050CF48ECE8435910574F4B2
:101F80002B813C812B3D31054CF02750314034F4FE
:101F900086E492E00E9441148CE077C0853591057B
:101FA000A4F18E39910574F42B813C812B3D3105D0
:101FB0004CF02750314034F486E292E00E94411404
:101FC0008DE063C08F39910504F1883E91050CF5D1
:101FD0002B813C812B3D31054CF02750314034F4AE
:101FE00086E092E00E9441148EE04FC02B813C813C
:101FF00041E0273034076CF02653314054F485EE2D
:1020000091E00E94411481E140C08A3091050CF4B6
:1020100042CE843591050CF03ECE8B819C81F1E05F
:1020200088309F070CF437CE865391400CF033CEA6
:1020300083EC91E00E9441148FE027C089819A814E
:10204000843191050CF427CE8C3D91050CF023CE04
:102050008B819C818D3A91054CF0893D910534F43A
:102060008EE991E00E94411482E10FC08B819C8136
:10207000853E91050CF40FCE815191400CF00BCEB2
:1020800087E791E00E94411483E12C960FB6F89403
:10209000DEBF0FBECDBFCF91DF911F910F91FF909B
:1020A000EF90DF90CF90BF90AF909F908F907F90F8
:1020B0006F905F900895EF92FF920F931F937C01B2
:1020C0000CE115E0C8016FEF7FEF0E94B325C80156
:1020D0006AE070E04AE050E00E94D91FC80163E363
:1020E00070E00E94E51FC80162E00E94DF1FC80186
:1020F00060E071E00E94EC0AC8016CE370E042E825
:1021000050E00E94D91FC80160EE77E00E94E51FF1
:10211000C80165E071E00E94EC0AC80163E370E069
:102120000E94E51FC8016AE070E044E051E00E94AF
:10213000D91FC8016EE071E00E94EC0AC8016AE094
:1021400070E042E251E00E94D91FC801B7010E942D
:10215000EC0A1F910F91FF90EF900895CF92DF92BC
:10216000EF92FF920F931F938C016B01BCE1EB2E5A
:10217000B5E0FB2EC7016FEF7FEF0E94B325C701CB
:102180006AE070E04AE050E00E94D91FC70163E3B3
:1021900070E00E94E51FC70162E00E94DF1FC701D7
:1021A00060E071E00E94EC0AC7016AE070E044E080
:1021B00051E00E94D91FC701B8010E94EC0AC70173
:1021C0006AE070E042E251E00E94D91FC701B60107
:1021D0000E94EC0A1F910F91FF90EF90DF90CF903B
:1021E0000895EF92FF920F931F937C010CE115E08D
:1021F000C8016FEF7FEF0E94B325C8016AE070E06D
:102200004AE050E00E94D91FC80163E370E00E94D9
:10221000E51FC80162E00E94DF1FC80160E071E0B5
:102220000E94EC0AC80168E270E04EE650E00E94AD
:10223000D91FC80160E078EF0E94E51FC8016AE17C
:1022400071E00E94EC0AC80160E570E042E850E0ED
:102250000E94D91FC80168E271E00E94EC0AC8011F
:1022600063E370E00E94E51FC8016AE070E042E2AB
:1022700051E00E94D91FC801B7010E94EC0A1F91CA
:102280000F91FF90EF9008950F931F930CE115E0CD
:10229000C8016FEF7FEF0E94B325C8016FE070E0C7
:1022A0004AE050E00E94D91FC80163E370E00E9439
:1022B000E51FC80162E00E94DF1FC80160E371E012
:1022C0000E94EC0AC80164EB70E04CE850E00E9408
:1022D000D91FC80160E071E00E94EC0AC80166E9FC
:1022E00070E042ED50E00E94D91FC80162E471E045
:1022F0000E94EC0AC8016AEA70E048E151E00E94DD
:10230000D91FC8016AE471E00E94EC0A1F910F9185
:102310000895EF92FF920F931F93F82EE92E0CE190
:1023200015E0C8016FEF7FEF0E94B325C8016AE096
:1023300070E04AE050E00E94D91FC80163E370E0FA
:102340000E94E51FC80162E00E94DF1FC80160E033
:1023500071E00E94EC0AC8016AE070E042E350E0DC
:102360000E94D91FC80160E571E00E94EC0AAF2D00
:10237000BE2DFD0101900020E9F73197EA1BFB0B10
:102380008DE090E09C01E29FC001E39F900DF29FE1
:10239000900D112468EE70E0681B790BC80142E3D0
:1023A00050E00E94D91FC8016F2D7E2D0E94EC0ABB
:1023B000C8016EE170E04CED50E00E94D91FC801E9
:1023C00068E571E00E94EC0AC80162E370E04AEF40
:1023D00050E00E94D91FC80168E671E00E94EC0A33
:1023E0001F910F91FF90EF900895AF92BF92CF92FF
:1023F000DF92EF92FF920F931F93D82EC92E1CE10C
:10240000A12E15E0B12EC5016FEF7FEF0E94B3251D
:10241000C5016AE070E04AE050E00E94D91FC501A2
:1024200063E370E00E94E51FC50162E00E94DF1FC8
:10243000C50160E071E00E94EC0AAD2DBC2DFD01EC
:1024400001900020E9F73197EA1BFB0B05E010E053
:10245000C8018E1B9F0BBDE0EB2EF12C8E9DB001B1
:102460008F9D700D9E9D700D112463567F4FC50189
:1024700042E350E00E94D91FC50165E771E00E9468
:10248000EC0AAD2DBC2DFD0101900020E9F731973C
:10249000EA1BFB0B0E1B1F0B0E9DB0010F9D700D59
:1024A0001E9D700D112466557F4FC50142E350E01B
:1024B0000E94D91FC5016D2D7C2D0E94EC0AC5011B
:1024C00062E370E042E850E00E94D91FC50167E76F
:1024D00071E00E94EC0AC50163E00E94DF1FC501A4
:1024E00064E170E04DEA50E028EC30E00CE210E0EE
:1024F000AAE0EA2EF12CC12CF8EFDF2E0E941D1E5F
:10250000C50161E470E046EB50E00E94D91FC501AF
:1025100064E871E00E94EC0AC50164E170E045EEF8
:1025200050E028EC30E0E0EECE2EE7E0DE2E0E9418
:102530001D1EC50162E370E04EEE50E00E94D91FFF
:10254000C5016BE871E00E94EC0A1F910F91FF90AA
:10255000EF90DF90CF90BF90AF900895AF92BF9271
:10256000CF92DF92EF92FF920F931F93F82EE92EF6
:1025700084EC93E00E944114FCE1AF2EF5E0BF2E05
:10258000C5016FEF7FEF0E94B325C5016AE070E0DF
:102590004AE050E00E94D91FC50163E370E00E9449
:1025A000E51FC50162E00E94DF1FC50164E971E01B
:1025B0000E94EC0AAF2DBE2DFD0101900020E9F72D
:1025C0003197EA1BFB0B0DE010E0E09FC001E19F9B
:1025D000900DF09F900D11246BED70E0681B790B4E
:1025E000C50142E350E00E94D91FC50165E771E0D3
:1025F0000E94EC0AAF2DBE2DFD0101900020E9F7ED
:102600003197EA1BFB0BE09FC001E19F900DF09F0B
:10261000900D112468EE70E0681B790BC50142E350
:1026200050E00E94D91FC5016F2D7E2D0E94EC0A3B
:10263000C50163E00E94DF1FC5016AE070E040E56C
:1026400050E029E430E00DE210E0EAE0EE2EF12C5B
:10265000BFEFCB2EB2EBDB2E0E941D1EC50165E540
:1026600070E040E550E028E430E0A3E3CA2ED12C2E
:102670000E946A1DC5016FE970E040E550E029E461
:1026800030E0FFEFCF2EF2EBDF2E0E941D1EC501C2
:1026900064E070E04DE550E00E94D91FC50167EA93
:1026A00071E00E94EC0AC5016AE070E04FE750E07B
:1026B00029E430E00CE210E00E941D1EC50165E532
:1026C00070E04FE750E028E430E0E3E3CE2ED12C79
:1026D0000E946A1DC5016FE970E04FE750E029E4F0
:1026E00030E0BFEFCB2EB2EBDB2E0E941D1EC501EA
:1026F00064E070E04AE850E00E94D91FC50165EB34
:1027000071E00E94EC0AC5016AE070E04DEA50E019
:1027100029E430E00E941D1EC50165E570E04DEA28
:1027200050E028E430E0A3E3CA2ED12C0E946A1DB9
:10273000C5016FE970E04DEA50E029E430E0FFEFB9
:10274000CF2EF2EBDF2E0E941D1EC50164E070E06B
:1027500047EB50E00E94D91FC50163EC71E00E9475
:10276000EC0AC5016AE070E04BED50E029E430E08E
:102770000E941D1EC50165E570E04BED50E028E4A8
:1027800030E0E3E3CE2ED12C0E946A1DC5016FE933
:1027900070E04BED50E029E430E0BFEFCB2EB2EB20
:1027A000DB2E0E941D1EC50164E070E043EE50E088
:1027B0000E94D91FC50161ED71E00E94EC0AC501BC
:1027C0006AE070E048E051E029E430E00EE210E019
:1027D000C12CA8EFDA2E0E941D1EC50165E570E030
:1027E00048E051E028E430E0F0EECF2EFFEFDF2E9E
:1027F0000E941D1EC5016FE970E048E051E029E428
:1028000030E0E0EECE2EE7E0DE2E0E941D1EC50178
:1028100062E070E043E151E00E94D91FC5016FED15
:1028200071E00E94EC0A1F910F91FF90EF90DF90F2
:10283000CF90BF90AF9008950F931F930CE115E0D8
:10284000C8010E94DD27C8010E945027BC01C801B1
:102850000E940728C80160E00E948F271F910F91F6
:102860000895CF93DF93EC0104C086EE94E00E94BC
:102870008E09FE01219664916623B9F7DF91CF910D
:1028800008950E94311486EE94E00E9496090895FE
:1028900086EE94E040E052EC61E070E00E94DD07DB
:1028A0000E941C1483EE93E00E9441140E94EB19D5
:1028B0000895CF92DF92EF92FF920F931F93DF93D1
:1028C000CF93CDB7DEB7A6970FB6F894DEBF0FBE95
:1028D000CDBF80913C0590913D0582309105C9F1B5
:1028E0008330910534F4009761F0019709F096C1A7
:1028F00011C08330910509F464C1069709F08EC1B7
:102900006AC10E94441181E090E090933D0580935C
:102910003C0584C18EEA94E00E94411402E010E07C
:1029200011C080E00E94260E80934C05882351F44C
:1029300010933D0500933C0510923E058EE395E013
:102940000E94AE1280913C0590913D05019749F39C
:1029500065C189E994E00E94411493E0C92ED12C0D
:102960000EE315E086E0E82EF12CF5C081E00E9430
:10297000260E80934C05833079F4F80101900020F5
:10298000E9F73197EE53F5403C9708F0E4C08EE349
:1029900095E063EB72E010C08430B9F4F801019067
:1029A0000020E9F73197EE53F5403C9708F0D3C08B
:1029B0008EE395E065EB72E04BE050E00E9456300C
:1029C0008EE395E00E94AE12C6C0853079F4F8011E
:1029D00001900020E9F73197EE53F5403C9708F05D
:1029E000BAC08EE395E067EB72E0E6CF863079F40B
:1029F000F80101900020E9F73197EE53F5403C973C
:102A000008F0A9C08EE395E069EB72E0D5CF87307E
:102A100079F4F80101900020E9F73197EE53F54081
:102A20003C9708F098C08EE395E06BEB72E0C4CF62
:102A3000883079F4F80101900020E9F73197EE53DE
:102A4000F5403C9708F087C08EE395E06DEB72E0AF
:102A5000B3CF893079F4F80101900020E9F731977C
:102A6000EE53F5403C9708F076C08EE395E06FEBAF
:102A700072E0A2CF8A3079F4F80101900020E9F7E2
:102A80003197EE53F5403C9708F065C08EE395E032
:102A900061EC72E091CF8B3079F4F8010190002065
:102AA000E9F73197EE53F5403C9708F054C08EE3B8
:102AB00095E063EC72E080CF8C30F9F4F80101907E
:102AC0000020E9F73197EE53F5403B9708F043C0FB
:102AD00080914B05882309F03EC08EE395E065ECBC
:102AE00072E04BE050E00E9456308EE395E00E9489
:102AF000AE1281E080934B052EC08D3071F4F80149
:102B000001900020E9F73197EE53F5403C9718F516
:102B10008EE395E067EC72E04FCF8F3049F4F0928E
:102B20003D05E0923C058EE395E00E94F51113C04F
:102B3000803139F4F80101900020E9F732971082D2
:102B40003FCF813141F4D0923D05C0923C058EE3E8
:102B500095E00E94891180913C0590913D05029776
:102B600009F404CF5BC083E894E00E9441148EE531
:102B700094E00E9441144091170450911804C80138
:102B80006EE375E00E94131889819A818F5F9F4FD1
:102B900079F08D819E810E945B108CE394E00E940D
:102BA000411468E873E180E090E00E94B30C04C037
:102BB0008CE194E00E94411410923D0510923C0576
:102BC00003C08E010F5F1F4F80913C0590913D0522
:102BD000039749F223C087E094E00E94411402E089
:102BE00010E016C082E00E94260E80934C058231D0
:102BF00029F410923D0510923C050AC0833141F43E
:102C000010933D0500933C058EE395E00E94AE12C3
:102C100080913C0590913D05069721F3A6960FB64D
:102C2000F894DEBF0FBECDBFCF91DF911F910F9102
:102C3000FF90EF90DF90CF9008950E94591408956F
:102C40008DE495E062E043E00E94C62208958F92F1
:102C50009F92AF92BF92CF92DF92EF92FF920F932B
:102C60001F93DF93CF93CDB7DEB7C654D0400FB6D6
:102C7000F894DEBF0FBECDBF8C017B015A018DB62B
:102C80009EB6FC01EE0FFF1FE80FF91FEC53FB4F40
:102C9000259134918DB79EB70A970FB6F8949EBFD1
:102CA0000FBE8DBFEDB7FEB7319647E2C42ED12CD3
:102CB000CC0EDD1EADB7BEB71296DC92CE92119748
:102CC00084ED92E0938382833583248377836683C4
:102CD000B186A0860E948B302DB73EB7265F3F4F4E
:102CE0000FB6F8943EBF0FBE2DBF8AEC97E00E944E
:102CF000411483EB97E00E94311486EE94E0B80112
:102D00004AE050E00E94CA0A88EA97E00E94311423
:102D100086EE94E0B7010E94EC0A8DE997E00E94EC
:102D2000311486EE94E0B5014AE050E00E94CA0AF0
:102D30008BE997E00E94311420E030E08E01095CBD
:102D40001F4FF801E20FF31FD601A20FB31F8C91A2
:102D500080832F5F3F4F2031310599F788E897E056
:102D60000E94311486EE94E0B8010E94EC0A86E7D6
:102D700097E00E94311486EE94E0B6010E94EC0ABE
:102D800097E0E92EF12CEC0EFD1E8DE495E0B801E4
:102D900040E1970100E110E00E949421882309F4AA
:102DA000DAC0ADB6BEB620E030E08E01095E1F4F3E
:102DB000F801E20FF31FD701A20FB31F8C9180839C
:102DC0002F5F3F4F2031310599F784E697E00E944D
:102DD000311486EE94E0B7010E94EC0A83E597E097
:102DE0000E94311486EE94E0B8010E94EC0AF801CA
:102DF00001900020E9F7E01BF10B33978DB79EB7E8
:102E00008E1B9F0B0FB6F8949EBF0FBE8DBF019611
:102E1000F80101900020E9F7E01BF10B3397ADB703
:102E2000BEB7AE1BBF0B0FB6F894BEBF0FBEADBF93
:102E3000CDB6DEB60894C11CD11CF801019000206B
:102E4000E9F7E01BF10B33972DB73EB72E1B3F0B75
:102E50000FB6F8943EBF0FBE2DBFEDB6FEB6089478
:102E6000E11CF11C20E030E0A0E0B0E060E070E0A8
:102E70008E01095E1F4F31C0F801E60FF71F408138
:102E80004132B9F42115310519F4A80FB91F0BC04F
:102E90002130310519F4AC0DBD1D05C022303105BE
:102EA00019F4AE0DBF1D1C922F5F3F4FA0E0B0E0A4
:102EB00012C02115310511F4FC0109C02130310582
:102EC00011F4F60104C02230310529F4F701EA0FAC
:102ED000FB1F408311966F5F7F4FF8010190002028
:102EE000E9F73197E01BF10B6E177F0728F20E947C
:102EF00038308C01C7010E9438307C018CE197E0AA
:102F00000E94411486E097E00E94311486EE94E01E
:102F1000B8014AE050E00E94CA0A8CEF96E00E9495
:102F2000311486EE94E0B6010E94EC0A82EF96E03E
:102F30000E94311486EE94E0B7014AE050E00E940E
:102F4000CA0A80EF96E00E9431140FB6F894BEBE14
:102F50000FBEADBE0CC082EDC82E82E0D82E80EB35
:102F600096E00E944114EE24FF2401E110E0FE826D
:102F7000ED82DC82CB821A830983202F3A814C2D8B
:102F80005C816E2D7E8180E090E00FB6F8949EBE4D
:102F90000FBE8DBECA5BDF4F0FB6F894DEBF0FBE0B
:102FA000CDBFCF91DF911F910F91FF90EF90DF90F8
:102FB000CF90BF90AF909F908F900895DF93CF9365
:102FC000CDB7DEB72C970FB6F894DEBF0FBECDBFDE
:102FD00087E696E00E94411481E090E062ED72E0A5
:102FE00040E050E00E9427162F83388749875A8790
:102FF0006B877C87DE011196FE01379686E0019093
:103000000D928150E1F720E089819A81019709F4BE
:1030100021E0822F2C960FB6F894DEBF0FBECDBFF5
:10302000CF91DF9108952F923F924F925F926F92CE
:103030007F928F929F92AF92BF92DF92EF92FF9218
:103040000F931F93DF93CF93CDB7DEB72E970FB6B5
:10305000F894DEBF0FBECDBF7C012B015E874D878C
:103060008FEF9FEFF70191838083938382838DEDB0
:1030700092E09583848388E296E00E94411400E008
:10308000DD24D394AA24BB2410E03E010894611CE3
:10309000711C77E0872E912C8C0E9D1E66E0262EEB
:1030A000312C2E0C3F1C50C10894A11CB11C8DE486
:1030B00095E00E942C21882309F439C10E94DE1773
:1030C000882309F43CC180EE92E00E94F11083EE67
:1030D00095E00E94311486EE94E0B2010E94EC0A61
:1030E0008BEA95E00E94311489E090E0B20140E063
:1030F00050E00E9427162F83388749875A876B87AD
:103100007C87D301F40186E001900D928150E1F7B4
:1031100089819A818230910559F08330910524F498
:103120008F5F9F4FC1F54FC18D30910549F54BC160
:1031300080EE92E00E94F1108AE090E06D857E853D
:1031400040E050E00E9427162F83388749875A872E
:103150006B877C87D301F40186E001900D9281504A
:10316000E1F789819A818330910579F08430910566
:1031700024F48F5F9F4F79F40AC08E30910519F0C7
:10318000419749F406C016E048C010E046C015E07B
:1031900044C013E042C012E040C0DD2021F08EEEBA
:1031A00092E00E94F1108BE090E062ED72E040E06E
:1031B00050E00E9427162F83388749875A876B87EC
:1031C0007C87D301F40186E001900D928150E1F7F4
:1031D00089819A818530910581F0863091053CF492
:1031E000EFEF8F3F9E0749F00497A1F409C08F309D
:1031F000910591F0419771F40AC001E017E00CC00D
:103200008D819E81F7019383828301E005C001E0F7
:1032100013E002C001E012E0DD24112309F0D5C063
:10322000002309F4BACF8CEF92E00E94F1108CE0F9
:1032300090E062ED72E040E050E00E9427162F839C
:10324000388749875A876B877C87D301F40186E0EA
:1032500001900D928150E1F789819A818730910523
:1032600009F4B7C08830910544F4FFEF8F3F9F0702
:1032700009F4AFC0069741F409C080319105B9F255
:10328000419711F413E0A1C012E09FC08EE093E0DB
:103290000E94F1104D815E818DE090E062ED72E060
:1032A0000E9427162F83388749875A876B877C8728
:1032B000D301F40186E001900D928150E1F78981FC
:1032C0009A818A30910501F18B3091053CF42FEF02
:1032D0008F3F920751F1099731F506C08B30910568
:1032E000C9F2419701F51DC0F701118210828BE1EF
:1032F00093E064E273E00E94AE1060ED77E080E05E
:1033000090E00E94B30C19C08D819E81892B69F0D9
:103310006B817C81C10140E250E00E94563011E097
:103320000CC013E00AC012E008C01AE006C08FE526
:1033300095E00E9441141BE002C001E0DD24F3E0AF
:10334000AF16B10409F010E0F70180819181892B5B
:1033500029F0F4E0AF16B1040CF4A6CE112351F01D
:103360008FE195E00E94311486EE94E062ED72E008
:103370000E94EC0A87E393E068E473E00E94AE10D9
:1033800060ED77E080E090E00E94B30C8DEE94E079
:103390000E944114C7012E960FB6F894DEBF0FBEEF
:1033A000CDBFCF91DF911F910F91FF90EF90DF90F4
:1033B000BF90AF909F908F907F906F905F904F9055
:1033C0003F902F90089514E028CF00E0DD24D3949F
:1033D000B6CF18E0FACFEF92FF920F931F938FEFC3
:1033E00097E00E9441148DE495E00E94A7228DE4AD
:1033F00095E00E9451227B018C01611571058105C8
:10340000910539F486EE94E061E573E00E94EC0AE0
:10341000FFCF86EE94E06AE673E00E94E90A412F4E
:1034200055276627772786EE94E020E130E00E945A
:10343000450A86EE94E06AE773E00E94E90A402FAD
:1034400050E060E070E086EE94E02AE030E00E9418
:10345000360A86EE94E06EE20E948E094F2D50E00F
:1034600060E070E086EE94E02AE030E00E94450AD9
:103470008DE495E00E9428221F910F91FF90EF901C
:103480000895FC0175836483718760875783468341
:1034900053874287158A158614861786168621E07B
:1034A000248B8FEF9FEF938B828B918B808B268B5E
:1034B00008952F923F924F925F926F927F928F92D8
:1034C0009F92AF92BF92CF92DF92EF92FF920F93B3
:1034D0001F93DF93CF93CDB7DEB762970FB6F89403
:1034E000DEBF0FBECDBF9A8B898B3B014A016701BE
:1034F00051E0A52EB12CA21AB30AC901880F991F59
:1035000044275527481B590B58874F83C4010197FF
:103510009C838B83DB011197BA83A98314010894E0
:10352000211C311C2B010894411C511C7901E1E044
:10353000F0E0FA87E9871E821D8210E0A80144703E
:1035400050705C874B87C801827090709E878D8712
:10355000D801A870B070B88BAF8701701070B7C079
:10356000B7FC0AC00894E108F108EF81F8853296AB
:10357000F887EF83AE0EBF1E4D815E814F5F5F4FB8
:103580005E834D8389859A8502969A878987AB8564
:10359000BC85AB2BF1F0A989BA89ED91FC9111970B
:1035A000A701480D591D0480F581E02DCD01B20120
:1035B00096010995A989BA89ED91FC911197B701F6
:1035C000660D771D0480F581E02DCD01A1019601E6
:1035D0000995ED85FE85EF2BF9F0A989BA89ED9162
:1035E000FC911197A4014E195F090480F581E02D2B
:1035F000CD01B20196010995A989BA89ED91FC9195
:103600001197B701660D771D0480F581E02DCD017E
:103610004B815C8196010995EF85F889EF2BF9F0D4
:10362000A989BA89ED91FC911197B3016E197F09AF
:103630000480F581E02DCD01A10196010995A989AC
:10364000BA89ED91FC911197A701480D591D04808D
:10365000F581E02DCD0169817A81960109950115E9
:10366000110501F1A989BA89ED91FC911197B30176
:103670006E197F090480F581E02DCD014B815C81BD
:1036800096010995A989BA89ED91FC911197A40138
:103690004E195F090480F581E02DCD0169817A81A1
:1036A00096010995E985FA85AE0EBF1E4B815C81B6
:1036B000415050405C834B8389819A8101979A8362
:1036C00089830894211C311C0894411C511CAD8134
:1036D000BE81AE15BF050CF443CF62960FB6F894C9
:1036E000DEBF0FBECDBFCF91DF911F910F91FF9035
:1036F000EF90DF90CF90BF90AF909F908F907F9092
:103700006F905F904F903F902F9008952F923F922F
:103710004F925F926F927F928F929F92AF92BF92E1
:10372000CF92DF92EF92FF920F931F93DF93CF938D
:10373000CDB7DEB72E970FB6F894DEBF0FBECDBF64
:103740009E878D871B015E834D83A701260171E053
:10375000C72ED12CC21AD30AC901880F991F662718
:103760007727681B790B7A8369836D807E80089444
:103770006108710883E0882E912C8E0C9F1C7901C2
:1037800081E090E09C838B83AA24BB2410E0D801C5
:10379000A170B070B887AF83FA013196FA87E987D4
:1037A000B801627070707C876B8777C0D7FC0AC0E5
:1037B0000894E108F10889819A8102969A838983A5
:1037C000C80ED91E0894A11CB11CAB81BC811296F5
:1037D000BC83AB83EF81F885EF2B41F1AD85BE85CE
:1037E000ED91FC911197B501620D731D4D815E81C4
:1037F0004E195F099701220F331F89859A85280F7B
:10380000391F0284F385E02DCD0182010995AD8534
:10381000BE85ED91FC911197B701620D731D028475
:10382000F385E02DCD01A30194010995EB85FC857D
:10383000EF2B41F1AD85BE85ED91FC911197B10162
:103840006A197B094D815E814E195F099701220F2C
:10385000331F89859A85280F391F0284F385E02D4F
:10386000CD0182010995AD85BE85ED91FC91119741
:10387000B1016E197F090284F385E02DCD01A3010A
:1038800094010995EB81FC81CE0EDF1E089461083E
:10389000710862E070E0860E971EAE14BF040CF44F
:1038A00085CF2E960FB6F894DEBF0FBECDBFCF9159
:1038B000DF911F910F91FF90EF90DF90CF90BF901D
:1038C000AF909F908F907F906F905F904F903F90C0
:1038D0002F9008952F923F924F925F926F927F9216
:1038E0008F929F92AF92BF92CF92DF92EF92FF9210
:1038F0000F931F93DF93CF9300D000D0CDB7DEB7E7
:103900003C017C836B836A015901FA82E98222249B
:1039100033249801241B350B37FF03C030952195C4
:103920003F4FC5014B815C81841B950B97FF03C002
:10393000909581959F4F821793075CF481E0282E24
:10394000312CC601CB80DC809C838B83C801850130
:103950005C018B819C81A816B90644F4C501AB803B
:10396000BC809C838B83C80186016C012501AB81DF
:10397000BC814A1A5B0A7801EC18FD08F7FE04C006
:10398000F094E194F108F394C016D10624F0882451
:103990008A94982C03C0B1E08B2E912CC20162E076
:1039A00070E00E94CE2F8B0125C0D301ED91FC91D8
:1039B0002114310441F00480F581E02DC301B601EA
:1039C0004B815C8107C00480F581E02DC3016B81D0
:1039D0007C81A60129813A8109950E191F0917FFDB
:1039E00004C0C80CD91C040D151DEB81FC81319657
:1039F000FC83EB834B815C81A416B506B4F60F9073
:103A00000F900F900F90CF91DF911F910F91FF902A
:103A1000EF90DF90CF90BF90AF909F908F907F906E
:103A20006F905F904F903F902F9008954F925F92CC
:103A30006F927F928F929F92AF92BF92CF92DF92BE
:103A4000EF92FF920F931F936C015B014A013901C2
:103A50002801DC01ED91FC910484F585E02D8701BE
:103A60000995D601ED91FC91A40141505040440DBF
:103A7000551D0484F585E02DC601B5019301099516
:103A8000D601ED91FC910284F385E02DC601B501CC
:103A9000A40192010995D601ED91FC910894A10829
:103AA000B108A60CB71C0284F385E02DC601B50150
:103AB000A401920109951F910F91FF90EF90DF9063
:103AC000CF90BF90AF909F908F907F906F905F90BE
:103AD0004F9008952F923F924F925F926F927F92F4
:103AE0008F929F92AF92BF92CF92DF92EF92FF920E
:103AF0000F931F93DF93CF93CDB7DEB728970FB601
:103B0000F894DEBF0FBECDBF5C0178876F831A01CA
:103B100049011E830D832701CB018E0D9F1D9C83C0
:103B20008B83EE0CFF1CF094E194F108F394D70121
:103B3000A20FB31FBA83A983D501ED91FC91048430
:103B4000F585E02DC5016B817C8129813A81860153
:103B500009956D807E80620C731C08946108710861
:103B6000D501ED91FC910484F585E02DC5016B81B3
:103B70007C81A30129813A810995240C351CED81B2
:103B8000FE81EE0EFF1ED501ED91FC910284F385BE
:103B9000E02DC5016F817885A10197010995EF811D
:103BA000F8858E0E9F1E089481089108D501ED912D
:103BB000FC910284F385E02DC501B401A1019701B8
:103BC0000995C5016B817C81A101920101E076011B
:103BD0000E94591A84189508C501B401A1019201E7
:103BE00002E00E94591A64187508C501B401A301C6
:103BF000920104E00E94591AC5016B817C81A301E6
:103C0000920108E00E94591A28960FB6F894DEBF78
:103C10000FBECDBFCF91DF911F910F91FF90EF901D
:103C2000DF90CF90BF90AF909F908F907F906F90DC
:103C30005F904F903F902F9008952F923F924F9218
:103C40005F926F927F928F929F92AF92BF92CF922C
:103C5000DF92EF92FF920F931F93DF93CF9300D0E9
:103C600000D000D0CDB7DEB72C015B015E834D8361
:103C70003C832B83480137011601C701860F971F2C
:103C80009A8389836701CC0CDD1CD094C194D10840
:103C9000D394D201ED91FC912C0D3D1D0088F1894A
:103CA000E02DC20169817A8171010995ED81FE8162
:103CB000E60DF71DFE83ED830894810891088C0CB6
:103CC0009D1C0894A108B1088B819C81A80EB91E87
:103CD000A618B708C201B501AF01930101E0740154
:103CE00061010E94861BC20169817A814D815E81DA
:103CF000930102E00E94861B26960FB6F894DEBF61
:103D00000FBECDBFCF91DF911F910F91FF90EF902C
:103D1000DF90CF90BF90AF909F908F907F906F90EB
:103D20005F904F903F902F9008952F923F924F9227
:103D30005F926F927F928F929F92AF92BF92CF923B
:103D4000DF92EF92FF920F931F93DF93CF93CDB744
:103D5000DEB72F970FB6F894DEBF0FBECDBF5C0164
:103D60005E834D8318870F83FA86E986CB86DC0154
:103D700018968D919C911997681779070CF0A4C03B
:103D80001A968D919C911B97481759070CF09CC06F
:103D9000EC2DF0E0FF87EE87CF01880F991F880F89
:103DA000991F8E0F9F1F860F971F181619060CF06C
:103DB0008BC0CF01F3E0880F991FFA95E1F7840FCC
:103DC000951F181619060CF07FC085E0289FA001EA
:103DD00011245A8349832B011B011C825C815530BD
:103DE00011F480E005C0E981FA81E45DF74F849128
:103DF0002C863D866D807E8043011B82C82EDD248B
:103E000080FF1CC0D501ED91FC91BB85B13049F418
:103E10000480F581E02DC501B201A3012F81388511
:103E200022C00088F189E02DC5016C857D85A40143
:103E30002E853F858901EF80F88423C0E985FA85C6
:103E40002F813885E217F307E9F0D501ED91FC9158
:103E5000BB85B13051F40480F581E02DC501B2017C
:103E6000A30129853A8509950DC00088F189E02DC7
:103E7000C5016C857D85A4012E853F858901E98476
:103E8000FA840995EB81EF5FEB832E853F85820EE7
:103E9000931E0894611C711CE83021F0D594C794DE
:103EA0008C2DACCF3C813F5F3C834E855F85240EDB
:103EB000351E0894411C511C89819A8101969A8370
:103EC0008983363009F08ACF2F960FB6F894DEBF7B
:103ED0000FBECDBFCF91DF911F910F91FF90EF905B
:103EE000DF90CF90BF90AF909F908F907F906F901A
:103EF0005F904F903F902F900895CF92EF92FF9256
:103F00000F931F93CF93DF93EC01262F6A3061F458
:103F10002C8930E013E0220F331F1A95E1F78E85CC
:103F20009F85820F931F37C06D30C9F16C857D85E9
:103F30004E855F8508891989EA88FB88CC880E94AC
:103F4000951E2C8986E0289FB00111248C859D85C3
:103F5000680F791F7D876C878E89882301F1422F36
:103F600050E08AEF9FEF9C01429FC001439F900D5C
:103F7000529F900D112428853985820F931F861733
:103F800097076CF4B3E0440F551FBA95E1F78E859F
:103F90009F85840F951F9F878E871D861C8681E0D5
:103FA00090E0DF91CF911F910F91FF90EF90CF9014
:103FB0000895FC0175876487578746870895FC013B
:103FC000662309F461E0648B0895FC01718B608BBA
:103FD000738B628B0895FC016370658B613081F097
:103FE000613028F0623019F0633091F409C08481A7
:103FF00095819187808786819781938782870895AD
:104000008681978191878087848195819387828734
:1040100008950895FC01808591850895FC018285AD
:1040200093850895682F84EE95E00E94F52A0895FF
:10403000CF92DF92EF92FF920F931F93CF93DF9374
:104040006B01142F1F5F62E070E080E090E00E943F
:10405000B30C84EE95E064E270E00E94732A80E085
:104060000E94122080E00E9412208FEF0E941220F6
:10407000812F0E941220812F81950E94122084EDB1
:104080000E94122083EDE82EFF24C12FD0E021975B
:104090000BC08601080F191FF80180810E941220B1
:1040A000F8018081E80EF3948F2D90E08C179D0726
:1040B00084F38E2D80950E94122080E00E941220B1
:1040C00084EE95E00E94382BDF91CF911F910F91E4
:1040D000FF90EF90DF90CF900895EF92FF920F93B3
:1040E0001F93DF93CF930F92CDB7DEB7162F79834F
:1040F000042F62E070E080E090E00E94B30C402F5B
:104100004E5F84EE95E064E20E94492B84EE95E0D8
:104110000E94862A212F3981C9017C0110E00EC03E
:1041200061E070E080E090E00E94B30C84EE95E0E6
:104130000E94862AF70181937F011F5F101780F389
:104140000F90CF91DF911F910F91FF90EF90089505
:10415000FC0180810E94DF0D90E0813009F091E048
:10416000892F0895EF92FF920F931F93CF93DF93C0
:104170007C018B01C0E0D0E00FC00115110531F0CA
:104180002A960C171D0710F480E00BC06AE070E05F
:1041900080E090E00E94B30CC7010E94A82081300B
:1041A00061F7DF91CF911F910F91FF90EF900895EC
:1041B0000F931F93DF93CF9300D000D000D0CDB7E3
:1041C000DEB78E010F5F1F4FB80146E00E946D20E1
:1041D000C80169E174E046E050E00E9475309C013E
:1041E00080E0232B09F481E026960FB6F894DEBF19
:1041F0000FBECDBFCF91DF911F910F910895EF9228
:10420000FF920F931F93CF93DF938C0179010E944C
:104210001820C0E0D0E00FC0E114F10431F02A967C
:10422000EC16FD0610F480E010C06AE070E080E05B
:1042300090E00E94B30CC8010E94A820813061F771
:10424000C8010E94D820811181E0DF91CF911F9198
:104250000F91FF90EF900895CF93DF93EC018AE4E4
:1042600080935E0581E080935F0510926005CE012A
:104270006EE575E043E028EE33E00E94FF208823DE
:1042800009F44EC0CE0160E375E70E94B220882396
:1042900009F446C0CE016EE575E040E40E946D2051
:1042A00080915E058823E1F580915F058823C1F543
:1042B000809160058F3FA1F5809161058195909176
:1042C0006205981769F580916305853D49F58091F0
:1042D00064058B3429F580916505813079F086EE8F
:1042E00094E069EA73E00E94EC0A86EE94E0609143
:1042F00065054AE050E00E94590A12C080916605A7
:10430000888B86EE94E062EC73E00E94E90A86EE08
:1043100094E068894AE050E00E94590A81E001C0B7
:1043200080E0DF91CF910895EF92FF920F931F935A
:10433000CF93DF93EC01F22EE32E4F3308F080C0D1
:1043400080E480935E05888980935F05A0E6B5E0F0
:10435000FB0102C081918D938E2F861B8417D0F3B1
:104360004E5FCE016EE575E028EE33E00E94FF203F
:10437000882309F465C0CE0168EE73E00E94B22084
:10438000882309F45DC0CE016EE575E040E40E942B
:104390006D2080915E05882309F04CC080915F05F7
:1043A000882309F047C0809160058F3F09F042C023
:1043B00020916105922F919580916205891709F0EE
:1043C0003FC080916305853D31F58091640581345E
:1043D00011F58091650590E08F739070892B81F5C0
:1043E000922F9350F8014081941708F4492FE6E684
:1043F000F5E08F2D9E2D9C01D901242F30E02E0F4A
:104400003F1F02C081918D93E217F307D9F7F8019E
:10441000408381E016C086EE94E06FEC73E00E946A
:10442000E90A86EE94E06091640540E150E00E9464
:10443000590A06C086EE94E067EF73E00E94EC0A2A
:1044400080E0DF91CF911F910F91FF90EF90089541
:10445000CF93DF93EC0194E190935E0581E080932C
:104460005F059093600580936105CE016EE575E070
:1044700044E028EE33E00E94FF20882311F490E00E
:104480000CC0CE016EE575E048E00E946D2090E022
:1044900080916405853109F491E0892FDF91CF91F6
:1044A0000895CF93DF93EC0182E080935E05CE0107
:1044B0006EE575E041E028EE33E00E94FF2088239E
:1044C000E9F1CE016EE575E04CE00E946D208EE5CD
:1044D00095E06FE174E046E050E00E94753000978F
:1044E00069F52091650530E040E050E0542F432FFE
:1044F000322F22278091660590E0A0E0B0E0282BC3
:10450000392B4A2B5B2B542F432F322F222780919C
:10451000670590E0A0E0B0E0282B392B4A2B5B2BFD
:10452000542F432F322F22278091680590E0A0E07E
:10453000B0E0282B392B4A2B5B2B04C020E030E065
:1045400040E050E0B901CA01DF91CF9108950F9387
:104550001F938C0184EE95E00E944D2BF801818120
:1045600061E00E94AC0DF801818160E00E94AC0D19
:1045700060E971E080E090E00E94B30CF801818175
:1045800061E00E94AC0D1F910F9108950F931F934E
:104590008C01862FF8016083418360E00E94400D0A
:1045A000F801818161E00E94400D1F910F910895F3
:1045B000EF92FF920F931F9343984298FC018789D3
:1045C000882341F48BB18F728BB985B1807D85B919
:1045D0004198419A8BB18F728BB985B1807D82628F
:1045E00085B94198419A429A8BB1F0EDEF2EE722BE
:1045F0008F728E298BB985B1EFE2FE2EF722807D76
:104600008F2985B94198419A8BB1062F007D8F7211
:10461000802B8BB985B1162F1F72807D812B85B9B8
:104620004198419A2150304040405040DA01C90140
:1046300036E0B695A795979587953A95D1F7FC0101
:10464000761709F076C014C080E14198419A4198EC
:10465000419A4198419A4198419A4198419A41988A
:10466000419A4198419A4198419A815071F7319706
:10467000309751F72F7305C04198419A4198419A5C
:1046800021502223C9F771C090E18BB18F728E291E
:104690008BB985B1807D8F2985B94198419A8BB1BD
:1046A0008F72802B8BB985B1807D812B85B9419824
:1046B000419A8BB18F728E298BB985B1807D8F29FC
:1046C00085B94198419A8BB18F72802B8BB985B196
:1046D000807D812B85B94198419A8BB18F728E294B
:1046E0008BB985B1807D8F2985B94198419A8BB16D
:1046F0008F72802B8BB985B1807D812B85B94198D4
:10470000419A8BB18F728E298BB985B1807D8F29AB
:1047100085B94198419A8BB18F72802B8BB985B145
:10472000807D812B85B94198419A915009F0ADCF98
:104730003197309709F0A8CF2F7315C08BB18F72C6
:104740008E298BB985B1807D8F2985B94198419A91
:104750008BB18F72802B8BB985B1807D812B85B910
:104760004198419A2150222349F7439A1F910F9172
:10477000FF90EF9008954098409A99B183B18F725D
:10478000907D892B089542988BB1962F907D8F72E2
:10479000982B9BB985B16F72807D862B85B9419826
:1047A000419A429A8BB1942F907D8F72982B9BB92E
:1047B00085B14F72807D842B85B94198419A0895C7
:1047C00042988BB1972F907D8F72982B9BB985B1B2
:1047D0007F72807D872B85B94198419A8BB1962F46
:1047E000907D8F72982B9BB985B16F72807D862BDF
:1047F00085B94198419A429A8BB1952F907D8F72DD
:10480000982B9BB985B15F72807D852B85B94198C6
:10481000419A8BB1942F907D8F72982B9BB985B163
:104820004F72807D842B85B94198419A08954298B2
:104830008BB1962F907D8F72982B9BB985B16F723B
:10484000807D862B85B94198419A429A8BB1932FEE
:10485000907D8F72982B9BB985B13F72807D832BA1
:1048600085B94198419A42988BB1942F907D8F726F
:10487000982B9BB985B14F72807D842B85B9419867
:10488000419A429A8BB1922F907D8F72982B9BB94F
:1048900085B12F72807D822B85B94198419A089508
:1048A000CF92DF92EF92FF920F931F93CF93DF93FC
:1048B0008C01EB017A01690177FD90C057FD8EC034
:1048C000FC0180859185681779070CF087C0828587
:1048D0009385481759070CF081C04398878988232E
:1048E000A1F58589823059F08330B1F08130D1F45F
:1048F0008FEE90E0841B950B7B01EC0113C08FEED3
:1049000090E09C01261B370BE9018FE391E0FC014D
:10491000E41BF50B7F0106C08FE391E0861B970B2C
:10492000EA017C01C80160E270E0AE010E94E02370
:10493000C80161E270E0A7010E94E023C80162E2C1
:1049400070E0A6010E94E02348C0813009F045C014
:10495000F8018589823041F0833041F0813011F4D3
:1049600040E605C040E003C040EC01C040EAC80199
:1049700066E10E94C323C80162E043E09E010E94F9
:104980001724C80166E047E097010E941724429867
:104990008BB18F728BB985B1807D826285B9419868
:1049A000419A429A8BB19D2D907D8F72982B9BB925
:1049B00085B1FFE2DF22807D8D2985B94198419A3A
:1049C0008BB19C2D907D8F72982B9BB985B1CF2296
:1049D000807D8C2985B94198419A439ADF91CF9186
:1049E0001F910F91FF90EF90DF90CF9008950F935C
:1049F0001F938C014398FC01208531852150304064
:104A000064E045E00E941724F80122853385215097
:104A10003040C80168E049E00E941724439A1F9182
:104A20000F9108956F927F928F929F92AF92BF9253
:104A3000CF92DF92EF92FF920F931F93CF93DF936A
:104A40006C01FB017A01590148014398DC0157963A
:104A50008C915797882309F05CC055968C918230D1
:104A6000A9F0833029F1813021F0E9013B015A019D
:104A70002BC08FEE90E0EC01C41BD50B7B018901AC
:104A80003E015B01FC01E819F9091EC02FEE30E080
:104A9000E901C61BD70B8FE391E08C01041B150BBA
:104AA000F901EA19FB097C01E818F9083E010BC07D
:104AB0008FE391E08C01061B170BFA01E4013A0128
:104AC0007C01E21AF30A5801C60160E570E0AF010B
:104AD0000E94E023C60161E570E0AE010E94E02380
:104AE000C60162E570E0A7010E94E023C60163E50C
:104AF00070E0A8010E94E023C60160E270E0A3011B
:104B00000E94E023C60161E270E0A5010E94E0235B
:104B10001AC08130C1F4C60162E043E09F010E94E7
:104B20001724C60166E047E097010E941724C601DA
:104B300064E045E095010E941724C60168E049E061
:104B400098010E941724439ADF91CF911F910F91F2
:104B5000FF90EF90DF90CF90BF90AF909F908F909D
:104B60007F906F900895EF92FF920F931F93CF93D2
:104B7000DF93EC017B018F89882319F58D898230C1
:104B800061F0833069F0813019F44FEE50E002C0DB
:104B900040E050E000E010E007C04FEE50E002C0FF
:104BA00040E050E00FE311E04398CE0160E270E096
:104BB0000E94E023CE0161E270E0A8010E94E023A0
:104BC00011C0813079F428853985215030400A851B
:104BD0001B8501501040CE0160E070E040E050E0E5
:104BE0000E941225CE01B70120E03CE241E050E0F6
:104BF0000E94D822DF91CF911F910F91FF90EF90EB
:104C000008958F929F92AF92BF92CF92DF92EF92D0
:104C1000FF920F931F93CF93DF93EC01D9015801BB
:104C20004701121613060CF06BC0101611060CF09B
:104C300067C088859985681779070CF061C0EA8597
:104C4000FB854E175F070CF05BC06901C60ED71ECF
:104C500096012150304037FD53C07801E40EF51E17
:104C60008701015010400AF047C04AC060E070E080
:104C700057FD02C0750102C040E050E02817390717
:104C800034F09C01215030406C01C61AD70A0E172F
:104C90001F0734F08F01015010407F01E41AF50A1C
:104CA000CE010E941225B701882777FD8095982FA5
:104CB0009601442737FD4095542F0E94AF2F9B014A
:104CC000AC01CE01B4010E94D8228F89882381F4DF
:104CD00028853985215030400A851B8501501040B8
:104CE000CE0160E070E040E050E00E94122508C074
:104CF000CE010E94F72404C077FDB8CF6D01B8CF74
:104D0000DF91CF911F910F91FF90EF90DF90CF90A7
:104D1000BF90AF909F908F900895CF92DF92EF92C7
:104D2000FF920F931F93CF93DF93EC01FB01680178
:104D3000121613060CF049C077FD47C08885998587
:104D4000681779070CF041C08A859B854817590779
:104D5000E4F57901E40EF51E8701015010408AF553
:104D600034C040E050E00817190734F08C010150BE
:104D700010407C01E41AF50ACE01BF019F010E9498
:104D800012259701442737FD4095542FCE01B601D7
:104D90000E94D8228F89882381F428853985215063
:104DA00030400A851B8501501040CE0160E070E064
:104DB00040E050E00E94122508C0CE010E94F72476
:104DC00004C057FDCECF7901CECFDF91CF911F9197
:104DD0000F91FF90EF90DF90CF900895CF92DF92E8
:104DE000EF92FF920F931F93CF93DF93EC01FA01A1
:104DF000A9016801121613060CF049C0F7FD47C05F
:104E00008A859B85E817F9070CF041C0888599854C
:104E100068177907E4F57901E60EF71E970121502E
:104E200030408AF534C060E070E02817390734F06C
:104E30009C01215030407C01E61AF70ACE01AF01F7
:104E40008F010E9412259701442737FD4095542F6A
:104E5000CE01B6010E94D8228F89882381F428854B
:104E60003985215030400A851B8501501040CE0104
:104E700060E070E040E050E00E94122508C0CE01E2
:104E80000E94F72404C077FDCECF7A01CECFDF9108
:104E9000CF911F910F91FF90EF90DF90CF900895E9
:104EA000EF92FF920F931F937C01439842988BB12E
:104EB0008F728BB985B1807D85B94198419A8BB14C
:104EC0008F728BB985B1807D85B94198419A8AB13D
:104ED0008F728AB984B1807D84B9429A8AE090E069
:104EE0000E94D90CC7010E94BB23182F00E08AE062
:104EF00090E00E94D90CC7010E94BB23439A9AB14B
:104F0000906D9AB994B19F6294B9282F30E0202B0C
:104F1000312BC9011F910F91FF90EF9008950F93CE
:104F20001F93CF93DF93EC010E94EB1F43988F896F
:104F3000882331F58D89823051F0833059F08130EA
:104F400019F448E250E108C040E350E105C040E0F8
:104F500050E102C048E150E1CE0163E070E00E9400
:104F6000E02328853985215030400A851B85015072
:104F70001040CE0160E070E040E050E00E94122559
:104F80008F898130A9F48D89823041F0833041F0DE
:104F9000813011F440E605C040E003C040EC01C0A0
:104FA00040EACE0166E10E94C323CE010E94F724AD
:104FB000DF91CF911F910F910895439A429A419AA0
:104FC000409A85E060E00E94AC0D62E070E080E015
:104FD00090E00E94B30C85E061E00E94AC0D439824
:104FE000429A8BB18F728BB985B1807D85B941981A
:104FF000419A80E04198419A8F5F8730D9F7439A70
:1050000064E670E080E090E00E94B30C08950F9396
:105010001F93CF93DF93EC018B0160EF70E040E4CE
:1050200051E00E94411ACE010E94DD2783E905323A
:10503000180721F083E90832180799F51F8A439869
:1050400000E010E0F801EE0FFF1FE95DF24F6591FF
:105050007491F801EE0FFF1FE75DF24F45915491F7
:105060006F3F710531F4BA0180E090E00E94B30C0B
:1050700003C0CE010E94E0230E5F1F4F06361105CC
:1050800009F7CE016D890E948F27CE0160E070E0A4
:1050900040E050E02FEE30E00FE311E00E941225D7
:1050A0002BC00557154731F581E08F8B439800E001
:1050B00010E0F801ED50F24F6491F801EC50F24F1E
:1050C00044916F3F39F4642F70E080E090E00E94DB
:1050D000B30C03C0CE010E94C3230E5F1F4F0635E1
:1050E000110539F7CE016D890E948F27CE010E94EC
:1050F000F72402C08FEF8F8BDF91CF911F910F911B
:1051000008950F931F938C01439A419A409A429AB3
:1051100085E061E00E94AC0D81E161E00E94400DFC
:1051200080E161E00E94400D8FE061E00E94400D4F
:105130008EE061E00E94400D85E061E00E94400D3C
:105140008AB1806D8AB984B18F6284B9F801158AF9
:10515000158614861786168681E0848B8FEF9FEF65
:10516000918B808B80EF90E09187808780E491E045
:10517000938782871F910F910895FC0113821282F9
:1051800089E394E091838083CF010E948128089570
:10519000FC0113821282118210820895EF92FF9215
:1051A0000F93FC014283248303836583F782E682A5
:1051B0008AE090E0918380830F91FF90EF900895B3
:1051C0002F923F924F925F926F927F928F929F9217
:1051D000AF92BF92CF92DF92EF92FF920F931F9305
:1051E000DF93CF93CDB7DEB760970FB6F894DEBFED
:1051F0000FBECDBF6C01FC018581A82FB0E0FD0181
:10520000E957FF4FA490F6018281682F70E0FB01FF
:10521000E957FF4F0491F6019481492F50E0FA01BC
:10522000E957FF4F4490F6019381892E9924940108
:1052300029573F4FF901B490A556BF4FFD01F49196
:10524000FB8765567F4FFB01F491FA8745565F4F08
:10525000FA0154902BE930E0820E931EF401F49190
:10526000F98760E00E94400DF601838160E00E94B2
:10527000400D602E7724660C771C23E730E0620E29
:10528000731EF301E590F490F7018081FA85F095A3
:10529000F88B8F23F70180838B2C9924880C991C21
:1052A000820E931EF401A591B4918C9199859095ED
:1052B00089238C93F601858161E00E94400DF601FF
:1052C000848161E00E94400DBB24AA0CBB1C23E733
:1052D00030E0A20EB31EF50105911491F801808112
:1052E000FB858F2BF8018083842D90E0880F991F18
:1052F000820F931FFC01A591B4918C91509485214C
:105300008C93F60182810E941E0D98878F83F6018F
:1053100082810E941E0D1C018FEF482E83E0582EC3
:1053200042185308F601858160E00E94400DF601A5
:10533000848160E00E94400DF8018081FB85F0953A
:10534000FF878F23F8018083F601828161E00E944C
:10535000400DF7018081FA858F2BF7018083F601DC
:10536000838161E00E94400DF60184810E941E0D40
:105370008C01F60184810E941E0D9E878D8708177F
:10538000190711F01C8608C01C862F81388522154C
:10539000330511F431E03C87F601858161E00E941C
:1053A000400DF501A591B4918C91FF858F238C93CD
:1053B000F401A591B4918C91F9858F2B8C93F30115
:1053C000A591B4918C91F8898F238C93F6018281F9
:1053D00060E00E94400DF60184810E941E0D5C0178
:1053E000F60182810E941E0D9C01F601C680D780C5
:1053F000C114D10409F441C0B901882777FD809513
:10540000982F0E94C02E7B018C01B501882777FD63
:105410008095982F0E94C02E9B01AC01C801B70156
:105420000E94252E20E030E040E85FE30E94C02D7E
:105430007B018C01B201882777FD8095982F0E940F
:10544000C02E9B01AC01C801B7010E944C2F7B010B
:105450008C01B60180E090E00E94BE2E9B01AC0161
:10546000C801B7010E944C2F20E030E040E85AE329
:105470000E944C2F0E948D2E05C0B50161507C4FBB
:10548000681B790BFC85FF2311F460E070E07E83DC
:105490006D834FEF53E02D853E85421B530B5C839C
:1054A0004B835A824982242D3A818C817E81582FE8
:1054B00080E090E060960FB6F894DEBF0FBECDBFDF
:1054C000CF91DF911F910F91FF90EF90DF90CF90E0
:1054D000BF90AF909F908F907F906F905F904F9014
:1054E0003F902F90089581E08093E3056093C0057D
:1054F0001092E1051092E20508952091BF0530E079
:105500008091BE05281B3109C90108954091BE054F
:105510008091BF05481718F02FEF3FEF0AC0E42F26
:10552000F0E0E256FA4F8081282F30E04F5F409341
:10553000BE05C9010895E091BE058091BF05E81739
:1055400018F0EFEFFFEF06C0F0E0E256FA4F80816F
:10555000E82FF0E0CF01089508951092E70510922A
:10556000E60588EE93E0A0E0B0E08093E805909334
:10557000E905A093EA05B093EB0581E594E09093EB
:10558000E5058093E4050895CF92DF92EF92FF92B4
:105590000F931F93CF93DF937C016B018A0180915E
:1055A000E3058823A1F0C0E0D0E00DC0D701ED9164
:1055B000FC91D601AC0FBD1F0190F081E02DC70119
:1055C0006C9109952196C017D10780F304C0CB01D7
:1055D000642F0E94F62BC801DF91CF911F910F918C
:1055E000FF90EF90DF90CF900895DF93CF930F92CD
:1055F000CDB7DEB7FC0169838091E3058823C9F04C
:105600008091E205803238F081E090E093838283DC
:1056100020E030E015C08091E105E82FF0E0EF5385
:10562000FA4F998190838F5F8093E1058093E20523
:1056300005C0CE01019661E00E94F62B21E030E02A
:10564000C9010F90CF91DF9108950F93062F80919C
:10565000C00561EC75E04091E20521E00E94A12BBC
:105660001092E1051092E2051092E3050F91089562
:1056700061E00E94252B0895413208F040E2862F18
:105680006EE975E00E94582B1092BE058093BF050D
:10569000089521E00E943C2B08951092BE051092BF
:1056A000BF051092E1051092E2050E94A22D089517
:1056B000382F413210F040E042C08091F00588233D
:1056C000E1F791E09093F0052093F2058FEF80933E
:1056D0005D06109218064150409319064F5F909353
:1056E000F1058091F105330F832B8093F1058091B3
:1056F000F305813041F41092F3058091F105809318
:10570000BB0085EC01C085EE8093BC008091F00564
:105710008130E1F380911806841710F44091180647
:1057200020E030E00AC0FB01E20FF31FD901A850CE
:10573000BA4F8C9180832F5F3F4F2417A0F3842FA3
:1057400008950F931F93582F122F413210F081E0CC
:105750004AC08091F0058823E1F782E08093F0054C
:105760000093F2058FEF80935D0610921806409328
:105770001906A8EFB5E0FB0102C081918D938E2F31
:10578000861B8417D0F31092F1058091F105550F17
:10579000852B8093F1058091F305813041F41092BF
:1057A000F3058091F1058093BB0085EC01C085EE87
:1057B0008093BC00112321F08091F0058230E1F349
:1057C00080915D068F3F11F480E00DC080915D06F1
:1057D000803211F482E007C080915D06803311F0C1
:1057E00084E001C083E01F910F910895482F61323A
:1057F00010F081E008958091F005843011F082E08E
:10580000089560933B06AAE1B6E0842F9C01F9015C
:1058100002C081918D938E2F841B8617D0F380E078
:1058200008951F920F920FB60F9211242F933F935A
:105830004F935F936F937F938F939F93AF93BF9398
:10584000EF93FF938091B90090E0887F907080364D
:10585000910509F4F2C081369105CCF588329105A5
:1058600009F47BC089329105B4F48031910509F4C3
:105870006FC0813191053CF4009709F447C1089746
:1058800009F04FC165C08831910509F466C0809761
:1058900009F047C182C08034910509F4A4C0813465
:1058A000910544F48033910509F482C0C89709F04A
:1058B00038C189C08035910509F489C088359105C2
:1058C00009F496C08834910509F02BC1AEC088391F
:1058D000910509F413C189399105ECF488379105D4
:1058E00009F4ABC0893791054CF48836910509F469
:1058F000A4C08037910509F014C19FC08838910574
:1059000009F4FCC08039910509F49DC080389105E7
:1059100009F007C198C0803B910509F4C6C0813BDE
:1059200091054CF4803A910509F49FC0883A91059D
:1059300009F0F7C0BAC0803C910509F4E3C0883C87
:10594000910509F4DFC0883B910509F0EAC0C2C0A7
:105950008091F1058093BB00CFC090911806809193
:105960001906981768F490911806E92FF0E0E850AE
:10597000FA4F80818093BB009F5F90931806BCC054
:105980008091F205882309F44BC085ED8093BC001B
:105990008091BC0084FDFCCFC2C080E280935D0694
:1059A00085ED8093BC008091BC0084FDFCCFB7C026
:1059B00080E380935D0685ED8093BC008091BC0000
:1059C00084FDFCCFACC088E380935D069BC08091D2
:1059D00018069091BB00E82FF0E0E850FA4F908352
:1059E0008F5F80931806909118068091190682C0E7
:1059F000809118069091BB00E82FF0E0E850FA4F34
:105A000090838F5F809318068091F205882341F080
:105A100085ED8093BC008091BC0084FDFCCF7FC0ED
:105A200081E08093F30584EA6EC085ED8093BC002D
:105A30008091BC0084FDFCCF72C083E08093F005B0
:105A400010925C0659C080915C06803208F056C006
:105A500080915C069091BB00E82FF0E0E45CF94F88
:105A600090838F5F80935C0647C080915C06803294
:105A700030F4E0915C06F0E0E45CF94F108285EDD3
:105A80008093BC008091BC0084FDFCCF1092F00597
:105A900060915C06E091F605F091F7058CE396E0E5
:105AA00070E0099510925C062DC084E08093F005AB
:105AB00010923A0610923B06E091F405F091F5053C
:105AC000099580913B06882329F481E080933B0669
:105AD00010921A0690913A06E92FF0E0E65EF94F2F
